:020000040800F2
:1000000000280020F9540008A50E0008A70E0008DB
:10001000A90E0008AB0E0008AD0E0008000000009D
:10002000000000000000000000000000714C00080B
:10003000AF0E000800000000114D0008554D0008EB
:100040004155000841550008415500084155000838
:100050004155000841550008415500084155000828
:100060004155000841550008415500084155000818
:100070004155000841550008415500084155000808
:100080004155000841550008B10E000841550008CF
:1000900041550008415500084155000841550008E8
:1000A00041550008C50E000841550008415500089B
:1000B0004155000841550008000000004155000866
:1000C00041550008000000000000000041550008F4
:1000D00000000000D90E0008415500080000000093
:1000E0004155000841550008415500080000000036
:1000F0000000000000000000000000000000000000
:0C01000000000000000000005FF808F1A3
:10011000034613F8012B002AFBD1181A0138704747
:100120004FF0FF0C1CEAD0521EBF1CEAD15392EADA
:100130000C0F93EA0C0F6FD01A4480EA010C4002B6
:1001400018BF5FEA41211ED04FF0006343EA501010
:1001500043EA5111A0FB01310CF00040B1F5000F52
:100160003EBF490041EAD3715B0040EA010062F101
:100170007F02FD2A1DD8B3F1004F40EBC25008BFEB
:1001800020F00100704790F0000F0CF0004C08BF09
:1001900049024CEA502040EA51207F3AC2BFD2F1D6
:1001A000FF0340EAC250704740F400004FF00003E4
:1001B000013A5DDC12F1190FDCBF00F0004070471E
:1001C000C2F10002410021FA02F1C2F1200200FA5C
:1001D00002FC5FEA310040F1000053EA4C0308BF23
:1001E00020EADC70704792F0000F00F0004C02BF74
:1001F000400010F4000F013AF9D040EA0C0093F0EF
:10020000000F01F0004C02BF490011F4000F013B48
:10021000F9D041EA0C018FE70CEAD15392EA0C0FB6
:1002200018BF93EA0C0F0AD030F0004C18BF31F021
:10023000004CD8D180EA010000F00040704790F0F7
:10024000000F17BF90F0004F084691F0000F91F09B
:10025000004F14D092EA0C0F01D142020FD193EA61
:100260000C0F03D14B0218BF084608D180EA0100E9
:1002700000F0004040F0FE4040F40000704740F0C5
:10028000FE4040F44000704780F0004002E000BFB4
:1002900081F0004142001FBF5FEA410392EA030F71
:1002A0007FEA226C7FEA236C6AD04FEA1262D2EBBB
:1002B0001363C1BFD218414048404140B8BF5B42C0
:1002C000192B88BF704710F0004F40F4000020F059
:1002D0007F4018BF404211F0004F41F4000121F06F
:1002E0007F4118BF494292EA030F3FD0A2F10102B9
:1002F00041FA03FC10EB0C00C3F1200301FA03F1F7
:1003000000F0004302D5494260EB4000B0F5000F19
:1003100013D3B0F1807F06D340084FEA310102F1D8
:100320000102FE2A51D2B1F1004F40EBC25008BF8A
:1003300020F0010040EA03007047490040EB000054
:10034000013A28BFB0F5000FEDD2B0FA80FCACF155
:10035000080CB2EB0C0200FA0CF0AABF00EBC25082
:1003600052421843BCBFD0401843704792F0000F70
:1003700081F4000106BF80F400000132013BB5E7C3
:100380004FEA41037FEA226C18BF7FEA236C21D039
:1003900092EA030F04D092F0000F08BF084670479E
:1003A00090EA010F1CBF0020704712F07F4F04D16C
:1003B000400028BF40F00040704712F100723CBF7F
:1003C00000F50000704700F0004343F0FE4040F4A9
:1003D000000070477FEA226216BF08467FEA236367
:1003E0000146420206BF5FEA412390EA010F40F452
:1003F000800070474FF0000304E000BF10F000439E
:1004000048BF40425FEA000C08BF704743F0964384
:1004100001464FF000001CE050EA010208BF70479F
:100420004FF000030AE000BF50EA010208BF704726
:1004300011F0004302D5404261EB41015FEA010C3B
:1004400002BF84460146002043F0B64308BFA3F133
:100450008053A3F50003BCFA8CF2083AA3EBC25315
:1004600010DB01FA02FC634400FA02FCC2F1200234
:10047000BCF1004F20FA02F243EB020008BF20F06B
:100480000100704702F1200201FA02FCC2F12002D1
:1004900050EA4C0021FA02F243EB020008BF20EAC6
:1004A000DC70704742000ED2B2F1FE4F0BD34FF01A
:1004B0009E03B3EB126209D44FEA002343F00043DA
:1004C00023FA02F070474FF00000704712F1610FFD
:1004D00001D1420202D14FF0FF3070474FF00000CF
:1004E000704700BF10B5054C237833B9044B13B1E6
:1004F0000448AFF300800123237010BD10000020DA
:10050000000000007056000808B5034B1BB10349FA
:100510000348AFF3008008BD000000001400002075
:100520007056000800B583B0104C2046104B984719
:100530004FF0FF3101200F4B984720460E4B984754
:100540000E4B984701900E4C0E49A04701900E4962
:10055000A04701900223002201A90C4800680C4C1E
:10056000A047C8200B4B9847DEE700BF881E00203D
:100570009552000895410008A54F0008F5030008B2
:10058000210100080000A03A0000C8422C00002011
:10059000452D0008CD3C000800B583B00023019331
:1005A00001A9094B1868094B9847019B4BB14FF0C3
:1005B000E0234FF08052C3F8042DBFF34F8FBFF3F9
:1005C0006F8F03B05DF804FB300000201942000873
:1005D00000B583B0002301934FF0FF3201A9044B13
:1005E0001868044B9847019803B05DF804FB00BFFE
:1005F0002C0000208533000810B582B000220421B1
:100600000120084B9847084B1860084B01930223C0
:1006100000930023402206490648074CA04702B039
:1006200010BD00BFED2C00082C0000203000002081
:1006300098560008250500085D390008064B1B6820
:10064000092B03D8044A136805331360034B1B6856
:10065000014A12685A637047340000206800002085
:10066000064B1B681BB1054A1368053B1360044B1E
:100670001B68024A12685A63704700BF34000020AA
:100680006800002008B500210148024B984708BDCA
:1006900068000020B122000800B583B001220DF1EE
:1006A00007010948094B98474FF0FF310120084BDB
:1006B000984700234FF0FF320DF10701054800680D
:1006C000054CA047EAE700BFB00000204D29000814
:1006D000954100083C000020452D000800B583B07E
:1006E0004FF0FF320DF10701074B1868074B984791
:1006F00001220DF107010648064B98474FF0FF31E4
:100700000120054B9847EBE7480000201130000816
:10071000B0000020892500089541000802680E4BB2
:100720001B689A4200D0704700B583B00023019344
:1007300001A90A4B18680A4B9847019B4BB14FF02F
:10074000E0234FF08052C3F8042DBFF34F8FBFF367
:100750006F8F03B05DF804FBB00000204C00002058
:100760001942000802680E4B1B689A4200D070477D
:1007700000B583B00023019301A90A4B18680A4B06
:100780009847019B4BB14FF0E0234FF08052C3F8E4
:10079000042DBFF34F8FBFF36F8F03B05DF804FBE1
:1007A000B0000020400000201942000870B582B05F
:1007B000154B01930423009300234022134914484E
:1007C000144EB047002201214020134DA847134B7F
:1007D00018600120124CA047124B1860124B019375
:1007E000142300930023402210491148B0470022EF
:1007F00001214020A8470F4B18600120A0470E4B55
:10080000186002B070BD00BF4C000020A456000864
:10081000DD0600085D390008ED2C000848000020C6
:10082000192F00084400002040000020B4560008A2
:10083000990600083C0000203800002030B583B045
:100840008DF807000A4D4FF0FF312868094B984793
:1008500000234FF0FF320DF1070107480068074CF5
:10086000A04700231A4619462868A04703B030BDA8
:1008700044000020A131000848000020452D000858
:10088000400100F0200001F00F010843054BD86043
:10089000DA6842F04002DA60DA6822F04002DA6098
:1008A000704700BF0010014070B505460C460909AD
:1008B000044EB04721462846B0470220024B9847D5
:1008C00070BD00BF81080008CD3C000800B583B0B2
:1008D0001420114CA04702210020104B9847022001
:1008E000A047282100200E4CA0470C210020A04743
:1008F00006210020A04702210020A0474FF0FF3230
:1009000001A9084B1868084B98479DF805109DF8F9
:100910000400034B9847F1E7CD3C0008810800082C
:10092000A9080008500000201130000810B582B05E
:10093000002202214020084B9847084B1860084BC2
:100940000193022300930023402206490648074CE6
:10095000A04702B010BD00BFED2C000850000020E1
:1009600054000020C0560008CD0800085D3900087A
:1009700010B582B08DF804008DF8051000234FF0FB
:10098000FF3201A902480068024CA04702B010BD26
:1009900050000020452D000830B585B0364B6C4620
:1009A0000FCB07C423800024ADF80E4080212046E1
:1009B000324B98470BE004AB234413F8105C2946F4
:1009C00001202E4B984728462D4B984701340F2C79
:1009D000F1D937E00025002404E00225FBE7294B8C
:1009E00098470134284B1A78AB1A002BB8BF5B42EA
:1009F000A34204D9AA42F2D2244B9847F1E7224BF2
:100A00001D708D2100201D4B984700242048214B4C
:100A10009847A04209D91E4D295D0120174B9847E0
:100A2000285D174B98470134F0E7C8201A4B9847C8
:100A30008D210020114B984700241548154B9847ED
:100A4000A04210D8154B9847154B9847154C20607D
:100A50000A220F49144B984723681D2BBAD9222B21
:100A6000BBD80125B7E720210120044B9847082077
:100A7000034B98470134E0E78856000871090008E5
:100A80003D08000861060008580000203D060008E7
:100A90005C00002011010008CD3C0008D1050008D1
:100AA000A504000860000020BD55000810B582B004
:100AB000094B9847094B9847094B9847094B98476A
:100AC0000023019305220092402207490748084C61
:100AD000A04702B010BD00BF2D090008AD070008F7
:100AE00085060008F9050008CC5600089909000899
:100AF0005D39000808B50268034B9A4200D008BD72
:100B0000024B9847FBE700BF002C0140051000088E
:100B100072B6FEE700B595B0282200210DEB020069
:100B2000184B98470023059306930793089309935E
:100B3000019302930393049302230A9301230E93D8
:100B400010230F930AA8104B9847A8B90F230593B9
:100B50000021069107910891099105A80B4B984730
:100B600060B9022301930023039301A8084B98471F
:100B700030B915B05DF804FB064B9847054B984714
:100B8000044B9847DD55000855100008E114000893
:100B9000E9160008110B000808B50A4B98470A4BE4
:100BA00098470A4B98470A4B98470A4B98470A4B75
:100BB00098470A4B98470A4B98470A4B98470A4B65
:100BC0009847FEE7D50F0008150B0008ED0B00084D
:100BD000D50D0008090D0008C14E0008AD0A000837
:100BE000AD470008650C0008F147000810B586B055
:100BF00000220292039204920592124B996941F0ED
:100C000010019961996901F01001009100999969A9
:100C100041F0040199619B6903F004030193019B76
:100C2000094C7F212046094B98477F2302930123DB
:100C3000039302230493059302A92046044B98478B
:100C400006B010BD0010024000100140251A000837
:100C50000518000808B50120014B9847FBE700BFC5
:100C60003549000808B5044A00210448044B984758
:100C7000044B186008BD00BFE8560008550C00087A
:100C800041480008640000200268094B9A4200D0E5
:100C9000704782B003F50333DA6942F00202DA6189
:100CA000DB6903F002030193019B02B0704700BFB0
:100CB0000004004000B587B000230293039304931F
:100CC000059302680D4B9A4202D007B05DF804FB11
:100CD00003F503339A6942F004029A619B6903F0B9
:100CE00004030193019B4023029302230393059382
:100CF00002A90348034B9847E7E700BF0004004000
:100D0000000801400518000800B58FB000230A93C1
:100D10000B930C930D930893099301930293039300
:100D200004930593069307932148224A026041F6F3
:100D30003F72426083600922C260036183611E4B7F
:100D4000984728BB4FF480530A930AA918481B4BB5
:100D5000984700BB16481A4B9847F8B900230893E8
:100D6000099308A91248174B9847D0B960230193FB
:100D70000022029202230393059201A90C48124B10
:100D8000984788B90A48114B98470FB05DF804FBA3
:100D90000F4B9847D6E70E4B9847DBE70C4B98472D
:100DA000DCE70B4B9847E1E7094B9847EAE700BFC0
:100DB0006800002000040040891F0008A5210008E9
:100DC000E91F000889230008AD200008B50C0008C1
:100DD000110B000808B50A480A4B03604FF416537C
:100DE000436000238360C36003610C22426183611E
:100DF000C361054B984700B908BD044B9847FBE712
:100E0000B00000200038014021250008110B000827
:100E100070B586B000230293039304930593026890
:100E20001B4B9A4201D006B070BD03F558439A6936
:100E300042F480429A619A6902F480420092009AD8
:100E40009A6942F004029A619B6903F004030193DA
:100E5000019B4FF400730293022303930323059332
:100E60000C4E02A930460C4DA8474FF48063029304
:100E700000240394049402A93046A8472246052181
:100E80002520064B98472520054B9847CBE700BF08
:100E9000003801400008014005180008311B000817
:100EA000A11B0008FEE7FEE7FEE7FEE7FEE770474E
:100EB00008B50248024B984708BD00BF881E0020B5
:100EC000AD4F000808B50248024B984708BD00BF67
:100ED000F40000208D1D000808B50248024B984719
:100EE00008BD00BFB0000020F126000800B583B0A7
:100EF000114B9A6942F001029A619A6902F001026B
:100F00000092009ADA6942F08052DA61DB6903F0FC
:100F100080530193019B00220F216FF00100074BCA
:100F20009847074A536823F0E06343F080635360B7
:100F300003B05DF804FB00BF00100240311B000845
:100F40000000014000B589B0014600221920174B6E
:100F500098471920164B9847164B9A6942F400623D
:100F60009A619B6903F400630193019B02A903A8A2
:100F7000114B9847114B9847114BA3FB00239B0C37
:100F8000013B1048104A026040F2E732C260436001
:100F90000023036183600D4B984718B1012009B00D
:100FA0005DF804FB07480A4B9847F8E7311B000837
:100FB000A11B000800100240AD16000889160008A9
:100FC00083DE1B43F4000020002C0140891F000831
:100FD000211D000808B5074A136843F01003136089
:100FE0000320054B98470F20044B9847044B984724
:100FF000002008BD002002400D1B0008450F00081E
:10100000ED0E0008034A1168034B1B780B44136074
:10101000704700BF3C01002000000020014B186811
:10102000704700BF3C01002082B0084B1B68084A93
:10103000A2FB03235B0A00FB03F3019300BF019BA8
:101040005A1E0192002BF9D102B07047080000200F
:10105000D34D6210002800F0F58170B582B00446CF
:10106000036813F0010F2CD08F4B5B6803F00C0367
:10107000042B1DD08C4B5B6803F00C03082B12D0A3
:101080006368B3F5803F41D0002B55D103F1804315
:1010900003F504331A6822F480321A601A6822F4C5
:1010A00080221A6037E0804B5B6813F4803FE7D002
:1010B0007D4B1B6813F4003F03D06368002B00F0E6
:1010C000C381236813F0020F75D0774B5B6813F070
:1010D0000C0F5FD0744B5B6803F00C03082B54D0EB
:1010E0002369002B00F08A80704B01221A60704B3C
:1010F000984705466C4B1B6813F0020F75D16C4B7B
:101100009847401B0228F5D90320A2E1664A1368DC
:1011100043F480331360636843B3654B98470546D7
:10112000614B1B6813F4003FCBD1614B9847401BC8
:101130006428F5D903208CE1B3F5A02F09D05A4BD0
:101140001A6822F480321A601A6822F480221A6027
:10115000E1E703F18043A3F53C331A6842F48022AF
:101160001A601A6842F480321A60D4E7504B9847EC
:1011700005464D4B1B6813F4003FA2D04C4B9847DB
:10118000401B6428F5D9032063E1474B5B6813F4E7
:10119000803FA5D1444B1B6813F0020F03D0236995
:1011A000012B40F05381404A136823F0F803616932
:1011B00043EAC1031360236813F0080F33D0A36917
:1011C000002B5CD0394B0122C3F88024384B984760
:1011D0000546354B5B6A13F0020F21D1344B98471B
:1011E000401B0228F5D9032033E12F4A136823F06E
:1011F000F803616943EAC1031360DCE72B4B00226B
:101200001A602B4B98470546274B1B6813F0020FBB
:10121000D1D0274B9847401B0228F5D9032018E16D
:101220000120244B9847236813F0040F00F09A80A4
:101230001D4BDB6913F0805F34D11B4BDA6942F040
:101240008052DA61DB6903F080530193019B012531
:10125000194B1B6813F4807F30D0E368012B41D019
:10126000002B57D103F1804303F504331A6A22F0AF
:1012700001021A621A6A22F004021A6237E00B4B6A
:101280000022C3F880240A4B98470546064B5B6A48
:1012900013F0020FC7D0064B9847401B0228F5D920
:1012A0000320D6E00025D3E70010024000004242B0
:1012B0001D1000082910000800700040694A1368DA
:1012C00043F480731360684B98470646654B1B6870
:1012D00013F4807FC1D1644B9847801B6428F5D9F3
:1012E0000320B6E0614A136A43F001031362E36826
:1012F00033B35D4B984706465C4B1B6A13F0020FF5
:101300002FD1594B9847801B41F288339842F3D92B
:1013100003209EE0052B09D0544B1A6A22F00102EB
:101320001A621A6A22F004021A62E0E74F4B1A6A44
:1013300042F004021A621A6A42F001021A62D6E707
:10134000494B98470646494B1B6A13F0020F08D0D9
:10135000454B9847801B41F288339842F3D90320CC
:1013600077E0E5B9E369002B72D0404A526802F099
:101370000C02082A56D0022B17D03D4B00221A66C9
:10138000394B98470446394B1B6813F0007F47D010
:10139000354B9847001B0228F5D9032059E0334A02
:1013A000D36923F08053D361DCE7314B00221A6606
:1013B0002D4B984705462D4B1B6813F0007F06D038
:1013C000294B9847401B0228F5D9032041E0236AA6
:1013D000B3F5803F1AD025494B6823F47413226A71
:1013E000606A024313434B60214B01221A661E4B75
:1013F000984704461D4B1B6813F0007F0ED11A4B13
:101400009847001B0228F5D9032022E0174A5368A9
:1014100023F40033A1680B435360DCE7002018E09D
:10142000002016E0012B16D0104B5B6803F48031CE
:10143000226A914211D103F47013626A93420ED171
:10144000002006E001207047012002E0012000E0BA
:10145000002002B070BD0120FBE70120F9E7012068
:10146000F7E700BF007000401D10000800100240A8
:101470000000424286B0164B0FCB0DF1180C0CE960
:101480000F0040F20123ADF80430124B5B6803F00B
:101490000C02082A02D0104806B07047C3F38342FA
:1014A000624412F8100C13F4803F0CD0094B5B68B7
:1014B000C3F34043634413F8143C074A02FB00F0B3
:1014C000B0FBF3F0E8E7054B03FB00F0E4E700BFF7
:1014D0000C5700080010024000127A0000093D007D
:1014E000002800F0A08070B50D460446524B1B68E2
:1014F00003F007038B420BD24F4A136823F0070314
:101500000B431360136803F007038B4240F08D8098
:10151000236813F0020F17D013F0040F04D0474ACA
:10152000536843F4E0635360236813F0080F04D05A
:10153000424A536843F460535360404A536823F06F
:10154000F003A1680B435360236813F0010F31D0FF
:101550006368012B20D0022B25D0384A126812F084
:10156000020F64D035494A6822F0030213434B60EE
:10157000334B98470646314B5B6803F00C036268B7
:10158000B3EB820F16D02E4B9847801B41F2883365
:101590009842F0D9032045E0284A126812F4003F2F
:1015A000E0D101203EE0254A126812F0007FD9D137
:1015B000012037E0204B1B6803F00703AB420AD938
:1015C0001D4A136823F007032B431360136803F0CD
:1015D0000703AB422DD1236813F0040F06D0174A3E
:1015E000536823F4E063E1680B435360236813F00E
:1015F000080F07D0114A536823F46053216943EA66
:10160000C10353600F4B98470C4B5B68C3F3031344
:101610000D4AD35CD8400D4B18600D4B18680D4B2C
:101620009847002070BD012070470120FAE7012093
:10163000F8E70120F6E700BF00200240001002405A
:101640001D1000087514000820570008080000202D
:1016500004000020450F0008014B1868704700BFC8
:101660000800002008B5054B9847054B5B68C3F39D
:101670000223044AD35CD84008BD00BF59160008B5
:10168000001002403057000808B5054B9847054B3D
:101690005B68C3F3C223044AD35CD84008BD00BFD3
:1016A0005916000800100240305700080F2303604D
:1016B0000B4B5A6802F0030242605A6802F0F002D3
:1016C00082605A6802F4E062C2605B68DB0803F47F
:1016D000E0630361034B1B6803F007030B60704773
:1016E000001002400020024070B582B0044603683A
:1016F00013F0010F36D03F4BDB6913F0805F49D107
:101700003C4BDA6942F08052DA61DB6903F08053C6
:101710000193019B0125384B1B6813F4807F3BD05C
:10172000344B1B6A13F4407313D0626802F44072A6
:101730009A420ED02F4A136A23F440702F49012693
:10174000C1F840640026C1F84064106213F0010F34
:1017500036D1284A136A23F4407361680B4313623D
:10176000002D3ED1236813F0020F06D0214A5368A2
:1017700023F44043A1680B435360236813F0100F18
:1017800034D01C4A536823F48003E1680B43536050
:1017900000202CE00025BEE7174A136843F480734D
:1017A0001360174B98470646134B1B6813F4807F52
:1017B000B6D1134B9847801B6428F5D9032016E057
:1017C0000F4B984706460B4B1B6A13F0020FC0D114
:1017D0000B4B9847801B41F288339842F3D9032082
:1017E00005E0D36923F08053D361BBE7002002B04A
:1017F00070BD00BF00100240007000400000424277
:101800001D10000870B582B00024A4468BE07F4D07
:10181000AA4210D007D97E4DAA420CD005F58035DA
:10182000AA4208D015E0A5F58015AA4203D005F517
:101830007025AA4209D18A68002A00F0BF80012AD7
:1018400000F0B7804361082403E0A5F58015AA42A3
:10185000F1D0BEF1FF0F00F2B3800646BEF1FF0FDC
:1018600000F2B0804FEA8C0233680F25954023EADE
:10187000050304FA02F2134333604B6813F0805FF0
:101880004FD0644B9A6942F001029A619B6903F060
:1018900001030193019B4FEA9C02951C5E4B53F898
:1018A00025600CF003039D000F23AB4026EA0306DE
:1018B0005A4B984200F08C8003F58063984200F008
:1018C000898003F58063984200F080800323AB4059
:1018D00033430232504D45F822304B6813F4803FB9
:1018E0007AD04F4A136843EA0E0313604B6813F42F
:1018F000003F77D04A4A536843EA0E0353604B686F
:1019000013F4801F74D0464A936843EA0E03936031
:101910004B6813F4001F71D0414AD36843EA0E03A9
:10192000D3600CF1010C0A6832FA0CF36CD001237D
:1019300003FA0CF302EA030E33EA0202F1D14A6819
:10194000122A3FF664AF122A83D801A555F822F077
:10195000371800089D190008A7190008B9190008D0
:1019600053180008531800085318000853180008AB
:10197000531800085318000853180008531800089B
:10198000531800085318000853180008531800088B
:1019900053180008A1190008AD190008CC6858E7D1
:1019A000CC68043455E7CC68083452E7CC680C3472
:1019B0004FE7036108244CE700244AE7042448E782
:1019C000061D4BE7ACF1080292004DE702237EE7CB
:1019D00000237CE701237AE7114A136823EA0E0308
:1019E000136083E70E4A536823EA0E03536086E7C9
:1019F0000B4A936823EA0E03936089E7084AD36889
:101A000023EA0E03D3608CE702B070BD0000221001
:101A100000003110001002400000014000080140A9
:101A2000000401400AB10161704709040161704777
:101A300090F82130022B06D004238363002380F822
:101A40002030012070470268136823F00E031360F2
:101A50000268136823F001031360036CC16B012259
:101A600002FA03F34B6080F82120002380F8203035
:101A70001846704708B590F82130022B03D0042394
:101A80008363012008BD0268136823F00E0313600E
:101A90000268136823F0010313600368194A934234
:101AA00014D0143293421FD0143293421ED01432F9
:101AB00093421ED0143293421ED01432934202D06D
:101AC0004FF0807203E04FF4801200E001220E4BD1
:101AD0005A60012380F82130002380F82030436BC6
:101AE0006BB198470020CDE71022F0E74FF48072E9
:101AF000EDE74FF48052EAE74FF48032E7E7002049
:101B0000C0E700BF0800024000000240074AD36857
:101B100023F4E0631B041B0C000200F4E0600343A9
:101B200043F0BF6343F40033D360704700ED00E03F
:101B300000B5194BDB68C3F30223C3F1070CBCF1FA
:101B4000040F28BF4FF0040C03F1040EBEF1060F82
:101B500018D9033B4FF0FF3E0EFA0CFC21EA0C01B2
:101B600099400EFA03F322EA0303194300280BDB22
:101B70000901C9B200F1604000F5614080F800132E
:101B80005DF804FB0023E5E700F00F000901C9B28E
:101B9000024B1954F4E700BF00ED00E014ED00E043
:101BA000002807DB00F01F02400901239340024A8E
:101BB00042F82030704700BF00E100E070B4036AD3
:101BC00023F001030362036A4668826922F073020C
:101BD0000C6844EA020523F002028B6813430D4CA3
:101BE000A04209D00B4CA0420DD0466085614A68E6
:101BF0004263036270BC704723F00803CA68134352
:101C000023F00403EEE726F440764A6932438E69F6
:101C10001643EAE7002C014030B4036A23F48073D2
:101C20000362036A4568C26922F073020C682243AA
:101C300023F400738C6843EA04230F4CA04209D0BC
:101C40000D4CA0420ED04560C2614A68C263036277
:101C500030BC704723F40063CC6843EA042323F4C8
:101C60008063EDE725F440554C6945EA04158C691D
:101C700045EA0415E7E700BF002C014030B4036AD1
:101C800023F480530362036A4468C26922F4E64283
:101C90000D6842EA052223F400538D6843EA0533B8
:101CA000074DA84206D04460C2614A6802640362DC
:101CB00030BC704724F480444D6944EA8514F2E74F
:101CC000002C014010B4036A046A24F00104046289
:101CD000846924F0F00C4CEA021223F00A030B434F
:101CE0008261036210BC704710B4046A24F01004CF
:101CF00004628469036A24F4704C4CEA023223F0D3
:101D0000A00343EA01138261036210BC7047836839
:101D100023F070030B4343F0070383607047000018
:101D200090F83D30DBB2012B23D1022380F83D3007
:101D30000268D36843F00103D36003680F4A9342FB
:101D40000CD0B3F1804F09D0A2F59432934205D064
:101D50001A6842F001021A60002070479A6802F087
:101D60000702062A07D01A6842F001021A60002012
:101D70007047012070470020704700BF002C0140D1
:101D800070477047704770477047000010B50446B1
:101D900003681A6912F0020F11D0DA6812F0020F0C
:101DA0000DD06FF002021A610123037703689B696B
:101DB00013F0030F70D0544B984700232377236808
:101DC0001A6912F0040F12D0DA6812F0040F0ED064
:101DD0006FF004021A610223237723689B6913F4CE
:101DE000407F5FD02046484B9847002323772368E5
:101DF0001A6912F0080F12D0DA6812F0080F0ED02C
:101E00006FF008021A61042323772368DB6913F05B
:101E1000030F4ED020463C4B98470023237723687E
:101E20001A6912F0100F12D0DA6812F0100F0ED0EB
:101E30006FF010021A61082323772368DB6913F41B
:101E4000407F3DD02046304B9847002323772368BE
:101E50001A6912F0010F03D0DA6812F0010F36D1BF
:101E600023681A6912F0800F03D0DA6812F0800F2D
:101E700034D123681A6912F0400F03D0DA6812F0E7
:101E8000400F32D123681A6912F0200F03D0DA68AC
:101E900012F0200F30D110BD1C4B984720461C4B30
:101EA00098478AE72046194B98472046184B984791
:101EB0009BE72046154B98472046154B9847ACE7C3
:101EC0002046124B98472046114B9847BDE76FF0CC
:101ED00001021A6120460F4B9847C1E76FF080025C
:101EE0001A6120460C4B9847C3E76FF040021A6115
:101EF00020460A4B9847C5E76FF020021A6120463A
:101F0000074B9847C7E700BF851D0008831D0008E1
:101F1000871D0008F50A0008EF230008891D000846
:101F2000ED2300080368174A904206D0B0F1804FB5
:101F300003D0A2F59432904203D123F070034A6893
:101F40001343104A904206D0B0F1804F03D0A2F55F
:101F50009432904203D123F44073CA68134323F0B0
:101F600080034A69134303608B68C3620B68836212
:101F7000044B984202D00123436170470B6903630D
:101F8000F9E700BF002C014040B310B5044690F8BB
:101F90003D30F3B1022384F83D30214651F8040B63
:101FA0000F4B9847012384F8463084F83E3084F87C
:101FB0003F3084F8403084F8413084F8423084F86F
:101FC000433084F8443084F8453084F83D300020B4
:101FD00010BD80F83C30034B9847DBE70120704789
:101FE000251F0008890C000840B310B5044690F87E
:101FF0003D30F3B1022384F83D30214651F8040B03
:102000000F4B9847012384F8463084F83E3084F81B
:102010003F3084F8403084F8413084F8423084F80E
:10202000433084F8443084F8453084F83D30002053
:1020300010BD80F83C30034B9847DBE70120704728
:10204000251F0008811D000830B4036A23F0100327
:102050000362036A4468826922F4E6420D6842EA38
:10206000052223F020038D6843EA05130E4DA84294
:1020700009D00D4DA8420ED0446082614A68826347
:10208000036230BC704723F08003CD6843EA051338
:1020900023F04003EDE724F440644D6944EA8504ED
:1020A0008D6944EA8504E7E7002C014038B590F8D3
:1020B0003C30012B60D004460D46012380F83C30B3
:1020C0000C2A1AD8DFE802F0071919191D19191975
:1020D0003119191944000068284B98472268936900
:1020E00043F0080393612268936923F0040393612A
:1020F0002268936929690B439361002084F83C00AE
:1021000038BD00681E4B98472268936943F400630A
:1021100093612268936923F48063936122689369D1
:10212000296943EA01239361E7E70068154B984763
:102130002268D36943F00803D3612268D36923F08E
:102140000403D3612268D36929690B43D361D4E7BF
:1021500000680D4B98472268D36943F40063D3614C
:102160002268D36923F48063D3612268D369296923
:1021700043EA0123D361C0E70220C1E7BD1B000889
:1021800049200008191C00087D1C000810B4846850
:1021900024F47F4C42EA03220A4342EA0C028260A2
:1021A00010BC704738B590F83C30012B65D0044620
:1021B000012380F83C30022380F83D3002689368A8
:1021C00023F47F4323F0770393600B68602B40D0A8
:1021D00022D8402B47D00BD9502B0ED1CA68496862
:1021E0000068274B984750212068264B984704E009
:1021F000202B0CD008D9302B09D0012384F83D3096
:10220000002084F83C0038BD0BB1102BF5D11946E5
:1022100020681C4B9847F0E7702B0ED0B3F5005F99
:10222000EBD1CB684A6889680068174DA8472268D7
:10223000936843F480439360DFE7CB684A6889681A
:102240000068114DA8472268936843F077039360B4
:10225000D3E7CA68496800680C4B9847602120683A
:10226000084B9847C9E7CA6849680068044B984713
:1022700040212068034B9847BFE70220C3E700BF17
:10228000C51C00080F1D00088D210008E91C00086E
:1022900001F01F01012303FA01FC036A23EA0C0386
:1022A0000362036A02FA01F10B4303627047000004
:1022B00010B50446084631BB94F83E30DBB2013B12
:1022C00018BF0123002B57D1002835D1022384F8F1
:1022D0003E30012201462068294B98472368294A4D
:1022E000934239D02368274A93423AD0B3F1804FC2
:1022F00037D0A2F59432934233D01A6842F00102EB
:102300001A60002039E0042908D008290DD094F87B
:102310004130DBB2013B18BF0123D3E794F83F30D3
:10232000DBB2013B18BF0123CCE794F84030DBB2AD
:10233000013B18BF0123C5E7042805D0082807D0B2
:10234000022384F84130C4E7022384F83F30C0E719
:10235000022384F84030BCE75A6C42F400425A64CD
:10236000C0E79A6802F00702062A07D01A6842F00E
:1023700001021A60002000E0012010BD0020FCE7EF
:1023800091220008002C014090F83C30012B28D00D
:1023900010B4012380F83C30022380F83D300368FC
:1023A0005A689C6822F0700C0A6842EA0C025A6073
:1023B00003680D4A934206D0B3F1804F03D0A2F5D3
:1023C0009432934204D124F080044A6814439C6000
:1023D000012380F83D30002380F83C30184610BCC3
:1023E00070470220704700BF002C014070477047C3
:1023F0000268D36823F49073D3600268536923F0B2
:1024000001035361036B012B05D0202380F83E307C
:102410000023036370470268D36823F01003D3607E
:10242000F3E790F83D30DBB2212B01D0022070475A
:102430008368B3F5805F17D0036A5A1C02621A786A
:1024400003685A60C38C9BB2013B9BB2C3844BB9F7
:102450000268D36823F08003D3600268D36843F036
:102460004003D360002070470369002BE4D1036A66
:102470001B880268C3F308035360036A02330362D4
:10248000E0E7000010B504460268136923F44053E6
:10249000C1680B43136183680269134342691A439D
:1024A0000168CB6823F4B05323F00C031343CB60D3
:1024B0000268536923F4407381690B4353610268D6
:1024C000134B9A4220D0134B9847024602EB8202EC
:1024D00002EB820263689B00B2FBF3F20E48A0FBA2
:1024E00002314909642303FB11231B013233A0FB92
:1024F00003235B0903F0F00202EB011203F00F0368
:10250000216813448B6010BD044B98470246DDE7F9
:1025100000380140651600081F85EB518916000838
:1025200058B310B5044690F83D300BB3242384F81B
:102530003D302268D36823F40053D3602046104B0B
:1025400098472268136923F4904313612268536902
:1025500023F02A0353612268D36843F40053D36005
:1025600000202064202384F83D3084F83E3010BDE4
:1025700080F83C30034B9847D8E70120704700BFF4
:1025800085240008110E000890F83D30DBB2202BA6
:1025900019D1D1B1DAB190F83C30012B19D0012317
:1025A00080F83C3001628284C284002303642122CB
:1025B00080F83D2080F83C300168CA6842F0800213
:1025C000CA601846704702207047012070470120FA
:1025D000704702207047000008B50168CA6822F001
:1025E0004002CA60202280F83D20024B984700201C
:1025F00008BD00BF1D0700087047000008B5406A0D
:102600000023C385C384014B984708BDF925000802
:102610007047000090F83E30DBB2222B60D1836817
:10262000B3F5805F46D0826AB3F5805F04D0002B9B
:102630004DD10369002B4AD103685B681370836A2C
:1026400001338362C38D9BB2013B9BB2C385002BD8
:1026500048D100B583B00268D36823F02003D3606B
:102660000268D36823F48073D3600268536923F04F
:1026700001035361202380F83E30036B012B2CD1E2
:10268000002303630268D36823F01003D360036858
:102690001A6812F0100F06D0002201921A680192F7
:1026A0005B680193019B818D0F4B9847002003B01D
:1026B0005DF804FB0269002AB5D1826A03685B6891
:1026C000C3F308031380836A02338362BAE70368A3
:1026D0005B6803F07F031370B1E7044B9847E5E7AD
:1026E0000220704700207047112600086507000887
:1026F00030B583B0044602681368D068516913F09E
:102700000F0505D113F0200F02D010F0200F19D1C2
:102710002DB111F0010119D110F4907F16D1216B68
:10272000012975D013F0800F03D010F0800F40F016
:10273000D78013F0400F03D010F0400F40F0D4804A
:1027400003B030BD20466A4B9847F9E713F0010FFC
:1027500006D010F4807F03D0226C42F00102226484
:1027600013F0040F04D019B1226C42F0020222646B
:1027700013F0020F04D019B1226C42F0040222645B
:1027800013F0080F07D010F0200F00D119B1226C00
:1027900042F008022264226C002AD1D013F0200FEC
:1027A00002D010F0200F21D123685B6903F04003B1
:1027B000226C12F0080F00D123B320464D4B9847EE
:1027C00023685A6912F0400F18D05A6922F040026B
:1027D0005A61A36B73B1484A5A63A06B474B984741
:1027E0000028ADD0A06B436B9847A9E72046404B2B
:1027F0009847D9E72046424B9847A1E72046404BEF
:1028000098479DE720463E4B98470023236497E76F
:1028100013F0100F86D010F0100F83D00023019317
:102820001368019353680193019B536913F0400FA0
:1028300032D0A16B0B685B689BB2002B80D0A08D5F
:1028400098427FF67DAFE3858B69202B08D1A18D5F
:10285000E38D9BB2C91A89B220462A4B98476FE78D
:10286000D36823F48073D3602268536923F0010393
:1028700053612268536923F040035361202384F895
:102880003E30002323632268D36823F01003D36013
:10289000A06B1D4B9847DAE7A18DE38D9BB2C91A57
:1028A00089B2E38D9BB2002B3FF44AAF00293FF47D
:1028B00047AFD36823F49073D3602268536923F041
:1028C00001035361202384F83E30002323632268F0
:1028D000D36823F01003D36020460A4B98472FE7B4
:1028E00020460A4B98472BE72046094B984727E795
:1028F00015260008F1230008FD250008751A0008B8
:10290000F925000811260008311A000823240008C0
:10291000D9250008034681628285C285002018649B
:10292000222283F83E2083F83C001968CA6842F4EA
:102930008072CA6019684A6942F001024A611A68E5
:10294000D36843F02003D3607047000008B590F8C7
:102950003E30DBB2202B0DD171B17AB190F83C3012
:10296000012B0DD0012380F83C3000230363054B7D
:10297000984700E0022008BD0120FCE70120FAE7AB
:102980000220F8E715290008704700F108034360AA
:102990004FF0FF328260C360036100230360704721
:1029A00000230361704743684B609A688A605160F6
:1029B00099600861036801330360704730B40D68A3
:1029C000B5F1FF3F11D000F108031C465B681A689F
:1029D000AA42FAD963684B6099608C6061600861B3
:1029E00003680133036030BC70470469F2E7036990
:1029F000416882688A60416851605A68824206D0A4
:102A0000002202611A68013A1A60186870478268E9
:102A10005A60F5E70346406A18B11B6B1868C0F1AD
:102A20003800704710B50446064B9847A26BE36B1D
:102A30009A4204D00024044B9847204610BD01243C
:102A4000F9E700BF954C0008D94C000810B50446C2
:102A5000054B9847A36B23B90124044B98472046A4
:102A600010BD0024F9E700BF954C0008D94C0008C0
:102A700070B504461546866B026C5AB903681BB1E3
:102A800000200136A66370BD4068174B98470023AD
:102A90006360F6E76DB98068144B9847226CA368B1
:102AA0001344A3606268934219D32368A360284645
:102AB000E7E7C0680D4B9847226C5142E3689B1AC8
:102AC000E3602268934202D263680B44E360022D04
:102AD00001D00020D5E726B1013E0020D1E72846ED
:102AE000CFE70020CDE700BF39400008C1550008FE
:102AF00008B50346026C62B10846D9681144D96032
:102B0000D3F804C0614501D31968D960D968014B75
:102B1000984708BDC155000838B505461A4B984777
:102B200095F8454064B201E0013C64B2002C0ADD36
:102B30006B6A43B105F12400144B98470028F3D089
:102B4000134B9847F0E7FF2385F84530114B984722
:102B50000D4B984795F8444064B201E0013C64B2E3
:102B6000002C0ADD2B6943B105F11000074B984793
:102B70000028F3D0064B9847F0E7FF2385F8443050
:102B8000044B984738BD00BF954C0008313E000803
:102B90006D3F0008D94C000838B5E0B10D46044639
:102BA0001E4B98472368E26B216C01FB023060608A
:102BB0000020A063A360013A02FB0133E360FF231E
:102BC00084F8443084F84530FDB9236963B9144B67
:102BD0009847012038BD4FF0500383F31188BFF3AD
:102BE0006F8FBFF34F8FFEE704F110000D4B984736
:102BF0000028ECD04FF0E0234FF08052C3F8042DB2
:102C0000BFF34F8FBFF36F8FE1E704F11000064D64
:102C1000A84704F12400A847D9E700BF954C000855
:102C2000D94C0008313E00088B29000838B51D46F4
:102C3000049C0B4649B92460E063236401212046CB
:102C4000034B984784F84C5038BD2260F4E700BF2E
:102C5000992B000840B94FF0500383F31188BFF35C
:102C60006F8FBFF34F8FFEE730B585B01C468446AB
:102C700053B192B189B94FF0500383F31188BFF378
:102C80006F8FBFF34F8FFEE74FF0500383F3118830
:102C9000BFF36F8FBFF34F8FFEE76AB150230393EB
:102CA000039B502B13D04FF0500383F31188BFF3D5
:102CB0006F8FBFF34F8FFEE70029EFD04FF0500327
:102CC00083F31188BFF36F8FBFF34F8FFEE70123AC
:102CD00084F8463000949DF820306046024DA847A5
:102CE000204605B030BD00BF2D2C000840B94FF084
:102CF000500383F31188BFF36F8FBFF34F8FFEE74D
:102D0000F0B583B00C4615460746A1B101FB00F0B3
:102D100050300A4B9847064650B1002380F84630A1
:102D200000902B4600F1500221463846044CA04743
:102D3000304603B0F0BD0846EAE700BF714A00081C
:102D40002D2C0008F0B585B0019288B10F461D46C4
:102D50000446B1B1022D20D1E36B012B1DD04FF001
:102D6000500383F31188BFF36F8FBFF34F8FFEE7DC
:102D70004FF0500383F31188BFF36F8FBFF34F8F72
:102D8000FEE7036C002BE5D04FF0500383F311886E
:102D9000BFF36F8FBFF34F8FFEE74C4B984706464C
:102DA00058B9019B002B48D04FF0500383F3118892
:102DB000BFF36F8FBFF34F8FFEE700263DE02A463B
:102DC00039462046424B9847636A7BB948B14FF079
:102DD000E0234FF08052C3F8042DBFF34F8FBFF3B1
:102DE0006F8F3C4B9847012005B0F0BD04F12400E3
:102DF000394B98470028F4D04FF0E0234FF0805231
:102E0000C3F8042DBFF34F8FBFF36F8FE9E7314B4A
:102E100098470020E8E702A8304B9847012619E0C0
:102E2000002384F8443021E0002384F8453023E077
:102E300020462B4B98472B4B98472B4B9847A26B20
:102E4000E36B9A42BBD3022DB9D0019B002BDED09D
:102E5000002EE0D01F4B9847244B9847224B9847B1
:102E600094F8442052B2B2F1FF3FD9D094F84520F3
:102E700052B2B2F1FF3FD7D0164B984701A902A832
:102E80001B4B9847D8B920461A4B98470028CFD0FB
:102E9000019904F11000184B98472046104B9847B1
:102EA000104B98470028C8D14FF0E0234FF08052D4
:102EB000C3F8042DBFF34F8FBFF36F8FBDE72046DC
:102EC000074B9847074B984700208DE7793F00084C
:102ED000712A0008D94C0008313E0008C53E0008A0
:102EE000192B0008C13B0008954C0008813A0008E6
:102EF000DD3E0008252A0008B93D000848B110B59C
:102F0000002141600160C1600B460A46014CA047A8
:102F100010BD7047452D000810B502460021012064
:102F2000034B98470446034B9847204610BD00BF0B
:102F3000ED2C0008FD2E00082DE9F84390B10F4656
:102F400016461C460546B1B1022C20D1EB6B012B75
:102F50001DD04FF0500383F31188BFF36F8FBFF381
:102F60004F8FFEE74FF0500383F31188BFF36F8F4D
:102F7000BFF34F8FFEE7036C002BE5D04FF05003FB
:102F800083F31188BFF36F8FBFF34F8FFEE71D4BA5
:102F90009847EFF311894FF0500383F31188BFF383
:102FA0006F8FBFF34F8FAA6BEB6B9A4206D3022C45
:102FB00004D0002089F31188BDE8F88395F8458096
:102FC0004FFA88F82246394628460F4B9847B8F101
:102FD000FF3F06D008F101035BB285F845300120C0
:102FE000E8E76B6A0BB90120E4E705F12400074B21
:102FF000984718B126B101203060DBE70120D9E7FE
:103000000120D7E7654E0008712A0008313E00080C
:10301000F0B585B0019290B10F460446C1B1544B52
:103020009847064600BB019B002B5ED04FF0500333
:1030300083F31188BFF36F8FBFF34F8FFEE74FF01D
:10304000500383F31188BFF36F8FBFF34F8FFEE7F9
:10305000036C002BE3D04FF0500383F31188BFF3D0
:103060006F8FBFF34F8FFEE700263EE039462046C4
:10307000404B9847013DA563236923B93E4B9847D0
:10308000012005B0F0BD04F110003C4B984700282A
:10309000F4D04FF0E0234FF08052C3F8042DBFF37B
:1030A0004F8FBFF36F8FE9E7334B98470020E8E776
:1030B00002A8334B9847012621E0002384F84430CE
:1030C00029E0002384F845302BE020462D4B98471B
:1030D0002D4B984709E020462A4B98472A4B9847A2
:1030E00020462A4B984700283FD1294B9847A56B8B
:1030F000002DBBD1019B002BD6D0002ED8D01E4B6B
:103100009847244B9847224B984794F844305BB239
:10311000B3F1FF3FD1D094F845305BB2B3F1FF3F3C
:10312000CFD0154B984701A902A81B4B9847002800
:10313000D1D12046154B98470028C6D0019904F1FB
:103140002400164B984720460E4B98470E4B984745
:103150000028CAD14FF0E0234FF08052C3F8042D6D
:10316000BFF34F8FBFF36F8FBFE7002089E700BF2A
:10317000793F0008F12A0008D94C0008313E0008C8
:10318000C53E0008192B0008C13B00084D2A000865
:10319000954C0008813A0008DD3E0008B93D000862
:1031A00070B584B0019158B10446036C8BB14FF0F7
:1031B000500383F31188BFF36F8FBFF34F8FFEE788
:1031C0004FF0500383F31188BFF36F8FBFF34F8F1E
:1031D000FEE75D4B9847054650B9019B5BB14FF048
:1031E000500383F31188BFF36F8FBFF34F8FFEE758
:1031F0000026354655E0064653E0013BA3632368AD
:103200003BB123694BB9514B98470126304604B076
:1032100070BD4F4B98476060F3E704F110004D4BD1
:1032200098470028EFD04FF0E0234FF08052C3F8CA
:10323000042DBFF34F8FBFF36F8FE4E746B14FF01C
:10324000500383F31188BFF36F8FBFF34F8FFEE7F7
:103250003E4B9847DAE702A83F4B984701252AE002
:10326000002384F8443032E0002384F8453034E011
:103270003A4B984760683A4B98470646334B984715
:103280003BE02046374B9847374B984709E02046AC
:10329000344B9847344B98472046344B9847002886
:1032A00042D12E4B9847A36B002BA6D1019B002B3C
:1032B000C4D0002DCFD0254B98472D4B9847274B96
:1032C000984794F844305BB2B3F1FF3FC8D094F80C
:1032D00045305BB2B3F1FF3FC6D01C4B984701A904
:1032E00002A8244B98470028D1D120461F4B98476D
:1032F0000028C6D02368002BBAD0019904F124001D
:103300001D4B98472046174B9847174B9847002866
:10331000C7D14FF0E0234FF08052C3F8042DBFF324
:103320004F8FBFF36F8FBCE70EB900266EE70B4BD4
:1033300098472046114B984701466068104B9847C4
:10334000024B9847F1E700BF793F0008D94C0008CD
:1033500079410008313E0008C53E0008954C000840
:10336000993F0008192B0008C13B00084D2A0008AE
:10337000813A0008DD3E0008B93D0008152A000822
:10338000D140000870B584B0019290B10E46044659
:10339000C1B1544B9847054600BB019B002B5ED042
:1033A0004FF0500383F31188BFF36F8FBFF34F8F3C
:1033B000FEE74FF0500383F31188BFF36F8FBFF325
:1033C0004F8FFEE7036C002BE3D04FF0500383F3E5
:1033D0001188BFF36F8FBFF34F8FFEE700253EE0EC
:1033E000E56831462046404B9847E560636A23B95B
:1033F0003E4B9847012004B070BD04F124003C4BC3
:1034000098470028F4D04FF0E0234FF08052C3F8E3
:10341000042DBFF34F8FBFF36F8FE9E7334B98470E
:103420000020E8E702A8334B9847012521E000235C
:1034300084F8443029E0002384F845302BE020460E
:103440002D4B98472D4B984709E020462A4B98472B
:103450002A4B984720462A4B984700283FD1294BB2
:103460009847A36B002BBBD1019B002BD6D0002D1E
:10347000D8D01E4B9847244B9847224B984794F836
:1034800044305BB2B3F1FF3FD1D094F845305BB22A
:10349000B3F1FF3FCFD0154B984701A902A81B4BB2
:1034A00098470028D1D12046154B98470028C6D010
:1034B000019904F12400164B984720460E4B98477B
:1034C0000E4B98470028CAD14FF0E0234FF08052AE
:1034D000C3F8042DBFF34F8FBFF36F8FBFE70020FA
:1034E00089E700BF793F0008F12A0008D94C00089D
:1034F000313E0008C53E0008192B0008C13B0008FA
:103500004D2A0008954C0008813A0008DD3E00086D
:10351000B93D00080023072B0CD8074A52F8332086
:103520000AB10133F7E7044A42F8331002EBC30350
:1035300058607047704700BF4001002070B50446D6
:103540000D461646124B984794F844305BB2B3F1DF
:10355000FF3F0DD094F845305BB2B3F1FF3F0BD085
:103560000C4B9847A36B5BB120460B4B984770BD43
:10357000002384F84430EDE7002384F84530EFE77A
:103580003246294604F12400044B9847ECE700BF7B
:10359000954C0008D94C0008192B0008F13D000893
:1035A000084B1B681B6823B9074B4FF0FF321A60AA
:1035B0007047044B1B68DB68DB685A68024B1A6073
:1035C000704700BF84010020300600202DE9F84F2D
:1035D00080460D46174699460A9EDDF82CA00C9CA5
:1035E0009200A521206B204B9847236B07F1804266
:1035F000013A03EB820727F007074FF0000CBCF1FC
:103600000F0F0BD815F80C2004EB0C0383F83420B3
:1036100015F80C3013B10CF1010CF0E7002384F81D
:103620004330372E00D93726E662E664002525654B
:10363000201DDFF838B0D84704F11800D8472461BE
:10364000C6F13806A6616462656584F858504A463A
:1036500041463846064B98472060BAF1000F01D02A
:10366000CAF80040BDE8F88FDD550008A129000820
:103670004D4C000870B5002407E004EB8402930071
:103680000C4818440C4B98470134372CF5D90B4E95
:103690003046094CA0470A4D2846A0470948A04794
:1036A0000948A0470948A047094B1E60094B1D6007
:1036B00070BD00BF8C0100208B290008040600208B
:1036C000180600203806002064060020500600205E
:1036D000840100208801002010B50446234B984740
:1036E000234A136801331360224B1B685BB1224BE2
:1036F0001B686BB91F4B1B68DA6AE36A9A4207D8EA
:103700001C4B1C6004E01B4B1C601368012B29D070
:103710001A4A1368013313606364E06A184B1B682C
:10372000984201D9164B186000EB8000211D154B03
:1037300003EB8000144B9847144B98470E4B1B68C3
:103740007BB10C4B1B68DA6AE36A9A4209D24FF0EC
:10375000E0234FF08052C3F8042DBFF34F8FBFF327
:103760006F8F10BD0A4B9847D2E700BF954C0008F9
:10377000EC050020800100204C060020FC05002004
:10378000000600208C010020A7290008D94C000861
:103790007536000838B5044690F8593063B1012BEE
:1037A00010D0022B0DD04FF0500383F31188BFF3DC
:1037B0006F8FBFF34F8FFEE7006B044DA847204685
:1037C000A84738BD014B9847FBE700BF714B000885
:1037D0000F4B1B68D3B110B50E4B98470E4BDB68EF
:1037E000DC68201D0D4B98470D4A1368013B1360A0
:1037F000074A1368013B13600A4B984720460A4B5F
:103800009847034B1B68002BE6D110BD704700BFE3
:10381000F0050020954C000864060020EF29000800
:10382000EC050020D94C00089537000808B5084B76
:103830009847084B1B68012BF9D94FF0E0234FF054
:103840008052C3F8042DBFF34F8FBFF36F8FEEE7A5
:10385000D13700088C01002070B504460D46174B87
:103860001E68174B18680430164B9847B4F1FF3F99
:103870000DD03444124B1B685C60A64210D9124B29
:1038800018680F4B19680431104B984770BD002D14
:10389000EFD00B4B196804310D480E4B9847F5E7F4
:1038A0000D4B1868064B19680431084B98470B4BB1
:1038B0001B68A342EAD9094B1C60E7E778060020A1
:1038C00080010020EF29000888010020BD290008A0
:1038D00050060020A729000884010020300600209F
:1038E00030B587B00B9C7CB10C9DB5B15C250495BF
:1038F000049D5C2D1AD04FF0500383F31188BFF361
:103900006F8FBFF34F8FFEE74FF0500383F31188A3
:10391000BFF36F8FBFF34F8FFEE74FF0500383F37A
:103920001188BFF36F8FBFF34F8FFEE70C9D2C63A1
:10393000022485F8594000240394029505AC0194B3
:103940000A9C0094034CA0470C98034B9847059899
:1039500007B030BDCD350008D93600082DE9F04359
:1039600085B005460E46144698469000154A904785
:1039700000B381465C20134B98470746B0B1C0F8AE
:103980003090E7B1002387F85930039302970D9BDD
:1039900001930C9B009343462246314628460A4C2D
:1039A000A0473846094B9847012005E04846084B98
:1039B0009847E6E74FF0FF3005B0BDE8F0834FF0E1
:1039C000FF30F9E7714A0008CD350008D936000804
:1039D000714B000810B588B000240594069407AA1E
:1039E00006A905A81C4B9847059B0293069B0193CB
:1039F00000942346079A194919481A4CA0471A4BB4
:103A0000186040B1194B9847012806D0B0F1FF3F2C
:103A100018D008B010BD0020F6E74FF0500383F334
:103A20001188BFF36F8FBFF34F8F114B4FF0FF32F1
:103A30001A60104B01221A600F4B00221A600F4BC4
:103A40009847E6E74FF0500383F31188BFF36F8F79
:103A5000BFF34F8FFEE700BF7D49000838570008CD
:103A60002D380008E13800082C060020E14300084A
:103A7000300600204C06002078060020AD4D0008DE
:103A8000024A136801331360704700BFF805002035
:103A9000014B1868704700BF78060020F8B53A4B14
:103AA0001B68002B64D1394B1D6801351D60C5B9F9
:103AB000374B1B681B6843B14FF0500383F31188E9
:103AC000BFF36F8FBFF34F8FFEE7314A1168314B61
:103AD000186810601960304A1368013313602F4B67
:103AE00098472F4B1B68AB4238D900272D4B1B68DA
:103AF000DB6A03EB83039A002B4B9B58012B3CD9C9
:103B000001273AE00127224B1B681B6843B3204B77
:103B10001B68DB68DC6863689D4226D3261D30463F
:103B2000224B9847A36A1BB104F118001F4B98471A
:103B3000E36A1F4A1268934201D91D4A136003EBDE
:103B400083039A003146184810441A4B9847E26A9A
:103B5000144B1B68DB6A9A42D4D2D4E70027D2E721
:103B60000F4B4FF0FF321A60C0E70D4A1360BDE7FC
:103B7000114A1368013313600027104B1B6803B10F
:103B800001273846F8BD00BFF80500207806002060
:103B9000840100208801002034060020A13500089F
:103BA00030060020800100208C010020EF29000851
:103BB00000060020A7290008F40500207C0600204C
:103BC000344B1B6843B94FF0500383F31188BFF3A4
:103BD0006F8FBFF34F8FFEE770B52F4B98472D4B7C
:103BE0001A68013A1A601B68002B4ED12B4B1B68D8
:103BF0000BB900244AE00024294B1B6813B3284B5F
:103C0000DB68DC6804F11800264EB047251D284605
:103C1000B047E06A244B1B68984201D9224B1860D8
:103C200000EB80002946214B03EB8000204B984796
:103C3000E26A204B1B68DB6A9A42DDD31E4B0122ED
:103C40001A60D9E70CB11D4B98471D4B1C6884B90D
:103C5000194B1C68D4B14FF0E0234FF08052C3F8E9
:103C6000042DBFF34F8FBFF36F8F01240EE0013C93
:103C700007D0144B98470028F9D00F4B01221A6047
:103C8000F5E70F4B00221A60E2E700240E4B98473D
:103C9000204670BDF8050020954C0008EC0500207A
:103CA00038060020EF290008000600208C010020C3
:103CB000A7290008800100207C060020A13500080B
:103CC000F40500209D3A0008D94C000810B5A8B1B1
:103CD0000446104B1B6843B14FF0500383F3118827
:103CE000BFF36F8FBFF34F8FFEE70B4B9847002159
:103CF00020460A4B98470A4B984748B94FF0E023B3
:103D00004FF08052C3F8042DBFF34F8FBFF36F8F76
:103D100010BD00BFF8050020813A0008593800089E
:103D2000C13B00081F4B1B681BB11F4B01221A60CF
:103D300070471D4B00221A601C4B1B6803EB83016C
:103D40008A001B498A585AB90BB1013BF6E74FF07C
:103D5000500383F31188BFF36F8FBFF34F8FFEE7DC
:103D600003EB830082000A4450684068506003EB14
:103D7000830C4FEA8C020832114488420BD003EBCB
:103D8000830291000A4A0A445268D168094A1160C4
:103D9000064A13607047406862469100044A0A442C
:103DA0005060ECE7F80500207C06002000060020AB
:103DB0008C0100208001002058B110B50C46094A42
:103DC00011681831084B984701212046074B984746
:103DD00010BD4FF0500383F31188BFF36F8FBFF313
:103DE0004F8FFEE780010020BD29000859380008E8
:103DF00038B570B10D4614460A4A116818310A4B9D
:103E000098470CB14FF0FF3521462846074B98479D
:103E100038BD4FF0500383F31188BFF36F8FBFF3AA
:103E20004F8FFEE780010020A729000859380008BD
:103E300038B5C368DC6824B304F118052846194B6B
:103E40009847194B1B682BBB251D2846154B9847D7
:103E5000E06A164B1B68984201D9144B186000EBBE
:103E600080002946124B03EB8000124B9847E26A10
:103E7000114B1B68DB6A9A4211D901200F4B186065
:103E800038BD4FF0500383F31188BFF36F8FBFF33A
:103E90004F8FFEE729460A48064B9847E7E7002080
:103EA000EEE700BFEF290008F8050020000600201B
:103EB0008C010020A7290008800100207C0600203A
:103EC00038060020034B1B680360034B1B684360EC
:103ED000704700BF3406002078060020D8B170B5C6
:103EE0000C46054601B31C4B98471C4B19686B6880
:103EF000C81A2268B2F1FF3F27D0194E3668D5F8AC
:103F000000C0B44501D08B4224D9824215D8002389
:103F1000236001241AE04FF0500383F31188BFF3AC
:103F20006F8FBFF34F8FFEE74FF0500383F311887D
:103F3000BFF36F8FBFF34F8FFEE75B1A134423600D
:103F40002846084B9847002400E00024064B984779
:103F5000204670BD0124F9E7954C00087806002042
:103F600034060020C53E0008D94C0008014B012250
:103F70001A6070477C060020054B1B6833B1054B67
:103F80001B680BB10020704702207047012070476A
:103F90004C060020F805002000283FD038B5044624
:103FA000C36A204A1268D26A93422FD28269002AD9
:103FB00005DB1C4A1268D26AC2F13802826161696B
:103FC00003EB8303184A02EB8303994205D0154B98
:103FD0001B68DB6AE362012038BD251D2846134BB0
:103FE0009847104B1B68D86AE062114B1B689842D7
:103FF00009D800EB800029460B4B03EB80000D4BEA
:1040000098470120E8E70A4B1860F2E7C26C054BBD
:104010001B68DB6A9A4203D30020DDE7002070476B
:104020000120D9E7800100208C010020EF29000841
:1040300000060020A729000800283BD038B5044618
:104040001E4B1B68834208D04FF0500383F3118846
:10405000BFF36F8FBFF34F8FFEE7036D43B94FF090
:10406000500383F31188BFF36F8FBFF34F8FFEE7C9
:10407000013B0365C16AC26C91421DD00BB10020A7
:1040800038BD051D28460E4B9847E06CE062C0F134
:104090003803A3610B4B1B68984201D9094B186088
:1040A00000EB80002946084B03EB8000074B984744
:1040B0000120E5E7002070470020E1E780010020B3
:1040C000EF290008000600208C010020A729000825
:1040D000002846D038B50446036D43B94FF050036D
:1040E00083F31188BFF36F8FBFF34F8FFEE7C26C6E
:1040F0008A4200D20A46E16A914201D0012B00D0E7
:1041000038BD184B1B68A34222D0E262A369002B82
:1041100002DBC2F13802A261626901EB8101124B3C
:1041200003EB81018A42EBD1251D28460F4B9847AE
:10413000E06A0F4B1B68984201D90D4B186000EBE9
:1041400080002946084B03EB80000A4B9847D7E7CD
:104150004FF0500383F31188BFF36F8FBFF34F8F7E
:10416000FEE77047800100208C010020EF29000845
:1041700000060020A7290008054B1B6823B1044B4B
:104180001A68136D01331365014B1868704700BF3F
:104190008001002038B504460D461B4B98471B4B49
:1041A0001B685B6D2BB9194B1B68012283F85820E3
:1041B000ADB9174B9847144B9847144B1B685D6D6E
:1041C00025B1DCB1114B1B6800225A650F4B1B68EF
:1041D000002283F858200E4B9847284638BD1146D8
:1041E00028460C4B98474FF0E0234FF08052C3F81D
:1041F000042DBFF34F8FBFF36F8FDAE7034B1B68BC
:104200006A1E5A65E2E700BF954C00088001002055
:10421000D94C000859380008F8B5D8B10D46044605
:104220002B4B9847EFF311864FF0500383F311881F
:10423000BFF36F8FBFF34F8F94F85830DBB2022279
:1042400084F85820626D01326265012B0BD086F331
:104250001188F8BD4FF0500383F31188BFF36F8FBF
:10426000BFF34F8FFEE7A36A43B14FF0500383F3D0
:104270001188BFF36F8FBFF34F8FFEE7154B1B689D
:10428000E3B9271D3846144B9847E06A134B1B6867
:10429000984201D9114B186000EB80003946104B51
:1042A00003EB80000F4B9847E26A0F4B1B68DB6AF9
:1042B0009A42CCD945B101232B60C8E704F118011B
:1042C0000A48084B9847EFE7094B01221A60BEE7FE
:1042D000654E0008F8050020EF29000800060020C0
:1042E0008C010020A729000880010020380600204A
:1042F0007C060020064B1A681368B3FA83F35B0947
:10430000036013B9D368186870470020704700BF76
:104310008006002008B54160006191420CD8D21A95
:1043200083699A4201D3012008BD011D094B186819
:10433000094B98470020F7E79A4201D2994206D2EA
:10434000011D064B1868044B98470020ECE701203C
:10435000EAE700BF84060020BD290008800600208F
:1043600070B582B0114B9847114B1B681BB1114BB4
:10437000984702B070BD104D2846104EB047104C03
:104380002046B0470F4B1D600F4B1C60002300936D
:104390000E4B0F4A10210A200E4CA047044B186008
:1043A0000028E4D00C490D4B9847E0E7954C0008F5
:1043B000A4070020D94C0008280700208B290008FA
:1043C0003C070020800600208406002054070020BF
:1043D00088060020552C00084057000815350008B5
:1043E00010B588B0134B9847134B1B68CBB1002412
:1043F0000594069407AA06A905A8104B9847059BA3
:104400000293069B0193022300932346079A0C49CB
:104410000C480D4CA0470D4B186010B1012008B09E
:1044200010BD4FF0500383F31188BFF36F8FBFF3BC
:104430004F8FFEE761430008A4070020954900085C
:104440004857000889470008E1380008A8070020FD
:10445000B8B19C4603461848006850B310B584B004
:1044600000910192029305291CDC144B9847022805
:1044700010D000231A4669460F480068104CA04728
:1044800015E04FF0500383F31188BFF36F8FBFF334
:104490004F8FFEE70023069A694607480068084CDC
:1044A000A04704E0002362466946064CA04704B0DA
:1044B00010BD0020704700BFA4070020793F00080E
:1044C000452D0008392F000870B582B01B4B1B68C2
:1044D0001A68002A2AD0DB681E68DC68251D284679
:1044E000174B9847636A20469847E369012BEDD143
:1044F000A36933449E4207D26360246129460F4B6F
:104500001868104B9847E1E7002100910B463246AE
:1045100020460D4CA0470028D8D14FF0500383F31C
:104520001188BFF36F8FBFF34F8FFEE7074A106804
:1045300002490860136002B070BD00BF8006002011
:10454000EF290008BD290008514400088406002016
:1045500038B50546084B98470446084B1B6883420C
:1045600005D800232B60054B1C60204638BD044B4A
:10457000984701232B60F6E7913A00085007002086
:10458000C944000870B582B005460E46144B1B683E
:10459000DB68DC68201D134B9847E369012B04D0CE
:1045A000636A2046984702B070BDA1692B46324627
:1045B000294420460C4EB0470028F1D0002100913C
:1045C0000B462A462046094DA8470028E8D14FF05F
:1045D000500383F31188BFF36F8FBFF34F8FFEE754
:1045E00080060020EF290008154300085144000808
:1045F00070B582B006460C46184B984701A8184B78
:104600009847019B2BBB05460CB9B0421AD22CB17E
:10461000144B1B681C68B4FA84F464092246711BAD
:10462000114B1868114B9847114B984798B94FF0A8
:10463000E0234FF08052C3F8042DBFF34F8FBFF338
:104640006F8F08E00A4B984729463046094B984738
:1046500001E0074B984702B070BD00BF813A0008E7
:104660005145000884060020A40700203D350008BD
:10467000C13B00088545000830B589B002E0049BC5
:10468000002B0FDA002204A9384B1868384B9847E2
:10469000002869D0049B002BF1DA07990698059B46
:1046A0009847ECE7069C636913B1201D314B98478E
:1046B00003A8314B9847049B092BE3D801A252F879
:1046C00023F000BFED460008ED460008ED46000867
:1046D000854600083347000859470008ED460008A2
:1046E000ED4600088546000833470008059BA16990
:1046F000024619442046214DA8470028C2D0636ACB
:1047000020469847E369012BBCD1A26900210091A2
:104710000B46059802442046194CA0470028B1D109
:104720004FF0500383F31188BFF36F8FBFF34F8FA8
:10473000FEE70599A16131B10346024601442046D6
:104740000E4CA0479EE74FF0500383F31188BFF350
:104750006F8FBFF34F8FFEE794F82C30002B91D171
:104760002046084B98478DE709B030BDA4070020CC
:1047700011300008EF2900085145000815430008D2
:1047800051440008714B000800B583B001A8044BE8
:1047900098470199034B9847034B9847F6E700BFAA
:1047A000F5420008F145000879460008EFF305835B
:1047B00093B9EFF3108393B90C4B1868022804D017
:1047C00080B90A4B01221A607047EFF31183002B66
:1047D000F6D06FF0050070476FF0050070476FF07E
:1047E000050070474FF0FF30704700BF080A0020F7
:1047F00008B5EFF30583B3B9EFF31083B3B90E4BEC
:104800001B68022B08D0012B13D10B4B02221A601C
:104810000A4B9847002008BDEFF31182002AF2D01E
:104820006FF00500F7E76FF00500F4E76FF00500A3
:10483000F1E74FF0FF30EEE7080A0020D539000815
:10484000F0B587B000240494EFF30584002C43D125
:10485000EFF31083002B3FD1334B1B68022B16D094
:10486000002839D000238DF8173062B3156895B150
:10487000936903B918235C1E372C51D8546814F07F
:10488000010F4FD156694EB14FEA960C08E0EFF395
:1048900011830BBBE4E70DF11705E9E74FF0800C3E
:1048A00094682CB1D7685B2F02D9176907B1B6B9E4
:1048B00014B14FF0FF340CE0D46894B914699CB182
:1048C0004FF0FF3405E0002418234FF0800C0DF169
:1048D0001705012C0AD0ACB1049807B0F0BD012433
:1048E000F7E74FF0FF34F4E70024F2E71469926829
:1048F0000292019400930B46624629460B4CA04756
:104900000490E9E704AA019200930B461FFA8CF287
:104910002946074CA0470128DED000230493DBE79B
:104920000020DAE70020D8E7080A0020E138000874
:104930005D39000808B5EFF30583A3B9EFF31083E1
:10494000A3B90C4B1B68022B02D040B9002008BD54
:10495000EFF31183002BF8D06FF00500F7E7064B5B
:1049600098470020F3E76FF00500F0E76FF00500CF
:10497000EDE700BF080A0020CD3C0008034B0360B0
:10498000034B0B6080231360704700BFAC0900200D
:10499000AC070020034B0360034B0B604FF48073A4
:1049A000136070470C0E00200C0A0020124A12F00F
:1049B000070F1ED0D11D21F00701C1F5805313440C
:1049C0000A460E480260002141601344083B23F070
:1049D00007030B48036059601960991A516013600E
:1049E000084B1960084B1960084B4FF000421A60E1
:1049F00070474FF48053E4E76C0E0020781E0020CF
:104A0000680E0020741E0020701E00206C1E002006
:104A1000154B1A461B688342FBD3516802EB010C0D
:104A2000844509D0416800EB010C634509D003605F
:104A3000904218D0106070474068014451601046A1
:104A4000F0E710B4094C2468A3420AD05B6819440B
:104A5000416013681B680360904200D0106010BC76
:104A600070470460F8E77047781E0020680E002049
:104A700070B50546354B9847354B1B68A3B1354B90
:104A80001B681D424AD135B1083515F0070F02D019
:104A900025F007050835002D42D02F4B1B68AB428F
:104AA0004DD32E4A146804E02D4B9847E7E7224681
:104AB0001C466368AB4202D22368002BF7D1244B1B
:104AC0001B68A3423DD016680836236813606368EC
:104AD0005B1B102B10D9601910F0070F08D04FF096
:104AE000500383F31188BFF36F8FBFF34F8FFEE73F
:104AF000436065601B4B9847626817490B689B1AB7
:104B00000B60194909688B4201D217490B60114BA0
:104B10001B68134363600023236002E0002600E06B
:104B20000026124B984716F0070F0CD04FF0500399
:104B300083F31188BFF36F8FBFF34F8FFEE700261B
:104B4000EFE70026EDE7304670BD00BF813A000870
:104B5000680E00206C1E0020701E0020781E0020B1
:104B6000AD490008114A0008741E0020C13B00082E
:104B7000002830D038B50446A0F1080550F8043CB0
:104B8000154A1268134208D14FF0500383F311887D
:104B9000BFF36F8FBFF34F8FFEE750F8081C41B192
:104BA0004FF0500383F31188BFF36F8FBFF34F8F24
:104BB000FEE723EA020340F8043C084B984754F808
:104BC000041C074A13680B4413602846054B98479A
:104BD000054B984738BD70476C1E0020813A00088D
:104BE000701E0020114A0008C13B000882B000235B
:104BF00001930D4B1B68B3F1FF3F08D04FF05003FA
:104C000083F31188BFF36F8FBFF34F8FFEE74FF031
:104C1000500383F31188BFF36F8FBFF34F8F019B56
:104C2000002BFCD002B070470C0000200648006842
:104C3000006880F3088862B661B6BFF34F8FBFF398
:104C40006F8F00DF00BF000008ED00E04FF08073C1
:104C500040F8043C21F0010140F8081C034B40F8E7
:104C60000C3C40F8202C4038704700BFED4B00084A
:104C7000074B19680868B0E8F00F80F30988BFF3A4
:104C80006F8F4FF0000080F311884EF00D0E7047CB
:104C9000800100204FF0500383F31188BFF36F8F22
:104CA000BFF34F8F0B4A136801331360012B00D001
:104CB00070474FF0E023D3F8043D13F0FF0FF7D017
:104CC0004FF0500383F31188BFF36F8FBFF34F8F03
:104CD000FEE700BF0C000020094B1B6843B94FF0F2
:104CE000500383F31188BFF36F8FBFF34F8FFEE73D
:104CF000013B034A13600BB983F31188704700BF6F
:104D00000C00002000000000000000000000000077
:104D1000EFF30980BFF36F8F0D4B1A6820E9F00F96
:104D200010602DE908404FF0500080F31188FEF725
:104D3000F9FF4FF0000080F31188BDE808401968C2
:104D40000868B0E8F00F80F30988BFF36F8F7047F1
:104D50008001002008B54FF0500383F31188BFF3A2
:104D60006F8FBFF34F8F064B984728B14FF0E0236A
:104D70004FF08052C3F8042D002383F3118808BD3F
:104D80009D3A00084FF0E022002313619361054B28
:104D90001B680549A1FB03139B09013B53610723D2
:104DA0001361704708000020D34D621010B582B027
:104DB000244B1A78D2B20192FF221A701B78DBB210
:104DC0008DF803309DF8033003F050031E4A137032
:104DD0001E4B07221A6009E01C4A1368013B13604E
:104DE0009DF803305B00DBB28DF803309DF8033093
:104DF00013F0800FF0D1154A13681B02136003F4FF
:104E0000E0631360019BDBB20E4A13704FF0E023A6
:104E1000D3F8202D42F47002C3F8202DD3F8202DB2
:104E200042F07042C3F8202D094B98470024094BEB
:104E30001C60094B9847094B9847094B98472046F7
:104E400002B010BD00E400E0801E0020841E00209F
:104E5000854D00080C0000202D4C0008253D000861
:104E6000ED4B0008EFF305830F2B0FD9114A9B5C24
:104E7000DBB2114A12789A4208D94FF0500383F3FB
:104E80001188BFF36F8FBFF34F8FFEE74FF0E02322
:104E9000D3F80C3D03F4E063084A1268934208D942
:104EA0004FF0500383F31188BFF36F8FBFF34F8F21
:104EB000FEE77047F0E300E0801E0020841E002023
:104EC00000B585B000230193029303931148124A61
:104ED00002608360037303754FF46022C261436014
:104EE000012303610D4B984768B907230193012300
:104EF00002930023039301A90648094B984728B958
:104F000005B05DF804FB074B9847EEE7054B984763
:104F1000F6E700BF881E002000240140E55300088A
:104F2000C5500008110B000800B587B0002302939C
:104F30000393049305930268154B9A4202D007B07D
:104F40005DF804FB03F56C439A6942F400729A61C0
:104F50009A6902F400720092009A9A6942F004027F
:104F60009A619B6903F004030193019B80230293E0
:104F70000323039302A90748074B98470022052102
:104F80001220064B98471220054B9847D7E700BFE1
:104F9000002401400008014005180008311B0008EA
:104FA000A11B00080368D86C7047704710B5044611
:104FB00003685A6812F0200F18D01A6812F0020F16
:104FC00014D0826A12F0100F03D1826A42F4007288
:104FD00082629A6802F46022B2F5602F38D02046CF
:104FE000354B984723686FF012021A6023685A689D
:104FF00012F0800F22D01A6812F0040F1ED0A26A9D
:1050000012F0100F03D1A26A42F40052A2629A6811
:1050100002F4E042B2F5E04F31D05A6812F4806FEA
:1050200005D19A6802F46022B2F5602F24D02046A0
:10503000224B984723686FF00C021A6023685A6865
:1050400012F0400F03D01B6813F0010F28D110BDE0
:10505000227B002AC3D15A6822F020025A60A36A38
:1050600023F48073A362A36A13F4805FB7D1A36AA9
:1050700043F00103A362B2E7227B002AD7D15A682A
:1050800022F080025A60A36A23F48053A362A36AC9
:1050900013F4807FCBD1A36A43F00103A362C6E778
:1050A000A36A43F48033A3622046054B98472368E4
:1050B0006FF001021A60CAE799050008F55400086C
:1050C000AB4F000830B482B00022019290F8242047
:1050D000012A00F091800346012280F824204A68CA
:1050E000062A2DD80468606B02EB8202053A4FF065
:1050F0001F0C0CFA02FC20EA0C000D6805FA02F203
:10510000024362630A68092A3AD91C68E06802EB24
:1051100042021E3A4FF0070C0CFA02FC20EA0C0087
:105120008D6805FA02F20243E2600A68103A012A29
:1051300036D90020002283F8242002B030BC70470A
:105140000C2A0ED80568286B02EB8202233A1F2432
:10515000944020EA04000C6804FA02F202432A6335
:10516000D0E70568E86A02EB8202413A1F249440C6
:1051700020EA04000C6804FA02F20243EA62C1E782
:105180001C68206902EB42024FF0070C0CFA02FC8B
:1051900020EA0C008D6805FA02F202432261C4E79E
:1051A0001A681648824205D09A6A42F020029A6232
:1051B0000120BFE7906810F4000F1BD1906840F405
:1051C000000090600A68102A01D00020B2E70C4A63
:1051D00012680C49A1FB0212920C02EB82025200EF
:1051E000019202E0019A013A0192019A002AF9D152
:1051F00000209FE700209DE702209EE70024014059
:105200000800002083DE1B4330B583B000230193E8
:1052100003689A6812F0010F33D104469A6842F08D
:1052200001029A60184B1B68184AA2FB03239B0CCF
:10523000019302E0019B013B0193019B002BF9D1FB
:10524000134B9847054623689B6813F0010F16D14E
:105250000F4B9847431B022BF5D923689B6813F02B
:10526000010FF0D1A36A43F01003A362E36A43F095
:105270000103E362002384F82430012002E00020CF
:1052800000E0002003B030BD0800002083DE1B4397
:105290001D10000890F82430012B6DD010B5044685
:1052A000012380F82430354B9847002860D1A36A49
:1052B00023F4706323F0010343F48073A362236833
:1052C0002F4A93422CD0A26A22F48012A2625A681A
:1052D00012F4806F05D0A26A22F4405242F4805248
:1052E000A262A26A12F4805F30D0E26A22F0060263
:1052F000E262002284F824206FF002021A60226821
:10530000536843F02003536023689A6802F46022D4
:10531000B2F5602F1DD09A6842F480129A602AE09C
:10532000A2F58062526812F4702FCCD0A26A42F4C7
:105330008012A262134A526812F4806FD1D0A26A1E
:1053400022F4405242F48052A262CAE70022E26292
:10535000CFE70B4A934204D09A6842F4A0029A60C5
:1053600009E0A2F58062526812F4702FD3D1F3E7FE
:10537000002384F8243010BD022070470952000831
:10538000002801400024014038B503689A6812F0F3
:10539000010F01D1002038BD04469A6822F00102B5
:1053A0009A600F4B9847054623689B6813F0010FDE
:1053B00013D00B4B9847431B022BF5D923689B68EE
:1053C00013F0010FF0D0A36A43F01003A362E36A65
:1053D00043F00103E3620120DDE70020DBE700BFCB
:1053E0001D10000800287BD070B50446836A002B8E
:1053F0004DD020463B4B9847A36A13F0100369D168
:10540000002867D1A26A22F4885222F0020242F0F8
:105410000202A2626268E1690A43217B42EA410218
:10542000A568B5F5807F02D0012D36D01D46267DBA
:10543000012E35D02668716821F4694129437160D5
:105440002568AE68284931401143A960A168B1F5CB
:10545000807F01D0012902D12369013B1B0525680A
:10546000E96A21F470010B43EB62236899681F4BD2
:105470000B409A4225D0A36A23F0120343F0100395
:10548000A362E36A43F00103E362012027E0C36201
:1054900080F82430164B9847ABE74FF48075C6E789
:1054A00031B9A169013945EA413141F40065C1E7EB
:1054B000A16A41F02001A162E16A41F00101E162CB
:1054C000B8E70023E362A36A23F0030343F0010378
:1054D000A36204E0A36A43F01003A362012070BD3D
:1054E0000120704789530008FDF7E1FFFE0E1FFF02
:1054F000294F0008704700000C480D490D4A002351
:1055000002E0D458C4500433C4188C42F9D30A4A78
:105510000A4C002301E013600432A242FBD3FDF7E2
:1055200033FA00F00FF8FBF737FB7047000000205C
:10553000100000208057000810000020B81E002036
:10554000FEE7000070B500260C4D0D4C641BA41046
:10555000A64209D100F08CF800260A4D0A4C641BC3
:10556000A410A64205D170BD55F8043B98470136FA
:10557000EEE755F8043B98470136F2E77857000804
:1055800078570008785700087C570008931E222B94
:1055900010B50C4604D900231C460B70204610BDE4
:1055A0000A2A09D1002807DA2D230B700121404275
:1055B000214400F01BF8F1E70021F9E7FFF7E6BF0F
:1055C0000A44914200F1FF3300D1704710B511F841
:1055D000014B914203F8014FF9D110BD034602443B
:1055E000934200D1704703F8011BF9E7F0B58BB087
:1055F00005460B466E461D4C04F1200C37462068CC
:105600006168083403C764453E46F7D121792068B4
:105610003971911E222938604FF0000104D91970A8
:105620000B4618460BB0F0BD581E8446B5FBF2F78A
:1056300002FB17560DF1280E764416F8286C0C461E
:105640000CF8016F2E46B2423D4601F10101EDD941
:1056500000225A541919A51AAA42E2DA10F8015F79
:105660000E780132067001F80159F4E7505700082E
:10567000F8B500BFF8BC08BC9E467047F8B500BF3F
:08568000F8BC08BC9E4670470F
:1056880054656D70657261747572613A200000002E
:1056980054454D505F5461736B0000007472616E25
:1056A800736D69745461736B000000007265636503
:1056B8006976655461736B004C43445F5461736B46
:1056C80000000000686F6D65776F726B5461736BD3
:1056D8000000000064656661756C745461736B004A
:1056E800DC56000800000000000000000000000078
:1056F8000000000000020000180000000000000088
:105708000000000002030405060708090A0B0C0D37
:105718000E0F101000000000000000000000000044
:10572800010203040607080900000000010203043F
:1057380049444C4500000000546D725100000000BF
:10574800546D722053766300303132333435363736
:1057580038396162636465666768696A6B6C6D6E27
:105768006F707172737475767778797A00000000BB
:045778000905000817
:04577C00E504000838
:1057800001000000100000000024F400AAAAAAAA48
:04000005080054F9A2
:00000001FF
