:020000040800F2
:1000000000280020FD4200080F020008110200082D
:100010001302000815020008170200080000000083
:10002000000000000000000000000000413F000848
:100030001902000800000000E13F00082540000808
:100040004543000845430008454300084543000870
:100050004543000845430008454300084543000860
:100060004543000845430008454300084543000850
:100070004543000845430008454300084543000840
:100080004543000845430008454300084543000830
:100090004543000845430008454300084543000820
:1000A000454300081D020008454300084543000879
:1000B0004543000845430008000000004543000890
:1000C0004543000800000000000000004543000810
:1000D0000000000031020008454300080000000055
:1000E0004543000845430008454300080000000060
:1000F0000000000000000000000000000000000000
:0C01000000000000000000005FF808F1A3
:1001100010B5054C237833B9044B13B10448AFF341
:1001200000800123237010BD10000020000000009B
:10013000BC43000808B5034B1BB103490348AFF3A8
:10014000008008BD0000000014000020BC4300082F
:1001500010B590B02422002107A80F4B9847002427
:1001600001940294039404940594022306930123BA
:100170000A9310230B930D9406A8084B98470F235E
:1001800001930294039404940594214601A8044B1E
:10019000984710B010BD00BFAD4300083D0B0008EC
:1001A000C50F000808B5094B9847094B9847094BFC
:1001B0009847094B9847094B9847094B9847094B73
:1001C0009847094B9847094B9847FEE7BD0A000836
:1001D0005101000835150008A11500081942000852
:1001E000551A0008C53B00089D150008093C000889
:1001F00008B50268034B9A4200D008BD024B9847ED
:10020000FBE700BF002C0140ED0A00087047704773
:10021000FEE7FEE7FEE7FEE77047000008B502488C
:10022000024B984708BD00BF941D002059040008E8
:1002300008B50248024B984708BD00BF541D002076
:10024000F91D000882B00E4B9A6942F001029A61D2
:100250009A6902F001020092009ADA6942F0805233
:10026000DA61DB6903F080530193019B054A53680F
:1002700023F0E06343F08063536002B0704700BF37
:10028000001002400000014070B4036A23F0010333
:100290000362036A4668826922F073020C6844EACA
:1002A000020523F002028B6813430D4CA04209D0D3
:1002B0000B4CA0420DD0466085614A6842630362E0
:1002C00070BC704723F00803CA68134323F004038B
:1002D000EEE726F440764A6932438E691643EAE730
:1002E000002C014030B4036A23F480730362036A74
:1002F0004568C26922F073020C68224323F400733C
:100300008C6843EA04230F4CA04209D00D4CA04254
:100310000ED04560C2614A68C263036230BC704758
:1003200023F40063CC6843EA042323F48063EDE7FD
:1003300025F440554C6945EA04158C6945EA0415D5
:10034000E7E700BF002C014030B4036A23F4805378
:100350000362036A4468C26922F4E6420D6842EA15
:10036000052223F400538D6843EA0533074DA84264
:1003700006D04460C2614A680264036230BC7047C0
:1003800024F480444D6944EA8514F2E7002C0140CE
:1003900030B4036A056A25F001050562846924F01A
:1003A000F00444EA021423F00A030B43846103625D
:1003B00030BC704730B4056A25F0100505628469C9
:1003C000036A24F4704444EA023423F0A00343EAAD
:1003D00001138461036230BC7047836823F07003AB
:1003E0000B4343F0070383607047000090F83D30F3
:1003F000DBB2012B23D1022380F83D300268D368A1
:1004000043F00103D36003680F4A93420CD0B3F169
:10041000804F09D0A2F59432934205D01A6842F079
:1004200001021A60002070479A6802F00702062A4B
:1004300007D01A6842F001021A60002070470120BC
:1004400070470020704700BF002C01407047704784
:10045000704770477047000010B5044603681A697A
:1004600012F0020F11D0DA6812F0020F0DD06FF007
:1004700002021A610123037703689B6913F0030FDB
:1004800070D0544B98470023237723681A6912F0E1
:10049000040F12D0DA6812F0040F0ED06FF00402CD
:1004A0001A610223237723689B6913F4407F5FD08E
:1004B0002046484B98470023237723681A6912F097
:1004C000080F12D0DA6812F0080F0ED06FF0080291
:1004D0001A61042323772368DB6913F0030F4ED0DE
:1004E00020463C4B98470023237723681A6912F073
:1004F000100F12D0DA6812F0100F0ED06FF0100249
:100500001A61082323772368DB6913F4407F3DD009
:100510002046304B98470023237723681A6912F04E
:10052000010F03D0DA6812F0010F36D123681A697F
:1005300012F0800F03D0DA6812F0800F34D12368F4
:100540001A6912F0400F03D0DA6812F0400F32D16E
:1005500023681A6912F0200F03D0DA6812F0200F16
:1005600030D110BD1C4B984720461C4B98478AE75A
:100570002046194B98472046184B98479BE7204642
:10058000154B98472046154B9847ACE72046124B31
:1005900098472046114B9847BDE76FF001021A615A
:1005A00020460F4B9847C1E76FF080021A61204642
:1005B0000C4B9847C3E76FF040021A6120460A4B84
:1005C0009847C5E76FF020021A612046074B98470D
:1005D000C7E700BF510400084F0400085304000897
:1005E000F1010008BB0A000855040008B90A000818
:1005F0000368174A904206D0B0F1804F03D0A2F5AD
:100600009432904203D123F070034A681343104A96
:10061000904206D0B0F1804F03D0A2F594329042C0
:1006200003D123F44073CA68134323F080034A695B
:10063000134303608B68C3620B688362044B984268
:1006400002D00123436170470B690363F9E700BFE0
:10065000002C014040B310B5044690F83D30F3B192
:10066000022384F83D30214651F8040B0F4B984784
:10067000012384F8463084F83E3084F83F3084F813
:10068000403084F8413084F8423084F8433084F8B4
:10069000443084F8453084F83D30002010BD80F8A7
:1006A0003C30034B9847DBE701207047F105000819
:1006B0009941000840B310B5044690F83D30F3B1BD
:1006C000022384F83D30214651F8040B0F4B984724
:1006D000012384F8463084F83E3084F83F3084F8B3
:1006E000403084F8413084F8423084F8433084F854
:1006F000443084F8453084F83D30002010BD80F847
:100700003C30034B9847DBE701207047F1050008B8
:100710004D04000830B4036A23F010030362036A37
:100720004468826922F4E6420D6842EA052223F019
:1007300020038D6843EA05130E4DA84209D00D4DE4
:10074000A8420ED0446082614A688263036230BC72
:10075000704723F08003CD6843EA051323F040037C
:10076000EDE724F440644D6944EA85048D6944EA68
:100770008504E7E7002C014038B590F83C30012BA8
:1007800060D004460D46012380F83C300C2A1AD86C
:10079000DFE802F0071919191D191919311919196A
:1007A00044000068284B98472268936943F0080387
:1007B00093612268936923F004039361226893692B
:1007C00029690B439361002084F83C0038BD006820
:1007D0001E4B98472268936943F400639361226833
:1007E000936923F48063936122689369296943EADA
:1007F00001239361E7E70068154B98472268D369A6
:1008000043F00803D3612268D36923F00403D36162
:100810002268D36929690B43D361D4E700680D4B83
:1008200098472268D36943F40063D3612268D3698F
:1008300023F48063D3612268D369296943EA0123E1
:10084000D361C0E70220C1E789020008150700084C
:10085000E50200084903000810B4846824F47F44CA
:1008600042EA03220A432243826010BC7047000020
:1008700038B590F83C30012B65D00446012380F850
:100880003C30022380F83D300268936823F47F43B4
:1008900023F0770393600B68602B40D022D8402B65
:1008A00047D00BD9502B0ED1CA6849680068274B36
:1008B000984750212068264B984704E0202B0CD005
:1008C00008D9302B09D0012384F83D30002084F86A
:1008D0003C0038BD0BB1102BF5D1194620681C4BDC
:1008E0009847F0E7702B0ED0B3F5005FEBD1CB68E3
:1008F0004A6889680068174DA8472268936843F4DE
:1009000080439360DFE7CB684A6889680068114DCF
:10091000A8472268936843F077039360D3E7CA68D7
:10092000496800680C4B984760212068084B98473D
:10093000C9E7CA6849680068044B984740212068A5
:10094000034B9847BFE70220C3E700BF91030008AD
:10095000DB03000859080008B503000810B401F0D3
:100960001F01012303FA01F4036A23EA040303626B
:10097000036A02FA01F10B43036210BC70470000E6
:1009800010B50446084631BB94F83E30DBB2013B5B
:1009900018BF0123002B57D1002835D1022384F83A
:1009A0003E30012201462068294B98472368294A96
:1009B000934239D02368274A93423AD0B3F1804F0B
:1009C00037D0A2F59432934233D01A6842F0010234
:1009D0001A60002039E0042908D008290DD094F8C5
:1009E0004130DBB2013B18BF0123D3E794F83F301D
:1009F000DBB2013B18BF0123CCE794F84030DBB2F7
:100A0000013B18BF0123C5E7042805D0082807D0FB
:100A1000022384F84130C4E7022384F83F30C0E762
:100A2000022384F84030BCE75A6C42F400425A6416
:100A3000C0E79A6802F00702062A07D01A6842F057
:100A400001021A60002000E0012010BD0020FCE738
:100A50005D090008002C014090F83C30012B27D0A4
:100A600030B4012380F83C30022380F83D30036825
:100A70005C689D6824F070040A6822435A60036829
:100A80000C4A934206D0B3F1804F03D0A2F59432C2
:100A9000934204D125F080054A6815439D600123E7
:100AA00080F83D30002380F83C30184630BC704759
:100AB00002207047002C01407047704708B5074A74
:100AC000136843F0100313600320054B9847002080
:100AD000044B9847044B9847002008BD0020024073
:100AE000891400088D1A000845020008034A11689D
:100AF000034B1B780B441360704700BF501D002050
:100B000000000020014B1868704700BF501D0020F6
:100B100082B0084B1B68084AA2FB03235B0A00FB58
:100B200003F3019300BF019B5A1E0192002BF9D1E0
:100B300002B0704708000020D34D6210002800F07A
:100B4000F58170B582B00446036813F0010F2CD014
:100B5000984B5B6803F00C03042B1DD0954B5B682E
:100B600003F00C03082B12D06368B3F5803F41D02B
:100B7000002B55D103F1804303F504331A6822F4A6
:100B800080321A601A6822F480221A6037E0894B9A
:100B90005B6813F4803FE7D0864B1B6813F4003F7B
:100BA00003D06368002B00F0C381236813F0020FA9
:100BB00075D0804B5B6813F00C0F5FD07D4B5B688A
:100BC00003F00C03082B54D02369002B00F089801C
:100BD000794B01221A60794B98470546754B1B6883
:100BE00013F0020F74D1754B9847401B0228F5D9BA
:100BF0000320A2E16F4A136843F4803313606368F3
:100C000043B36E4B984705466A4B1B6813F4003F8D
:100C1000CBD16A4B9847401B6428F5D903208CE15F
:100C2000B3F5A02F09D0634B1A6822F480321A6002
:100C30001A6822F480221A60E1E703F18043A3F5E9
:100C40003C331A6842F480221A601A6842F48032F7
:100C50001A60D4E7594B98470546564B1B6813F466
:100C6000003FA2D0554B9847401B6428F5D903207C
:100C700063E1504B5B6813F4803FA5D14D4B1B687B
:100C800013F0020F03D02369012B40F05381494A2E
:100C9000136823F0F803616943EAC1031360236812
:100CA00013F0080F32D0A369002B45D0444B01222A
:100CB0001A60424B984705463E4B5B6A13F0020FA1
:100CC00021D13E4B9847401B0228F5D9032034E13F
:100CD000384A136823F0F803616943EAC1031360DB
:100CE000DDE7354B00221A60344B98470546314BFF
:100CF0001B6813F0020FD2D0304B9847401B0228DC
:100D0000F5D9032019E101202E4B9847236813F0F1
:100D1000040F00F09B80274BDB6913F0805F1DD12F
:100D2000244BDA6942F08052DA61DB6903F08053C8
:100D30000193019B012512E0214B00221A601F4BF9
:100D4000984705461B4B5B6A13F0020FDED01B4B26
:100D50009847401B0228F5D90320EEE000251A4BE6
:100D60001B6813F4807F11D0E368012B2ED0002B79
:100D700044D103F1804303F504331A6A22F00102DF
:100D80001A621A6A22F004021A6224E00E4A1368F8
:100D900043F480731360094B984706460A4B1B685F
:100DA00013F4807FE0D1054B9847801B6428F5D968
:100DB0000320C2E00010024000004242050B000880
:100DC00080044242110B0008007000405F4A136A21
:100DD00043F001031362E36833B35D4B9847064663
:100DE0005A4B1B6A13F0020F2FD1594B9847801BA7
:100DF00041F288339842F3D903209EE0052B09D0B5
:100E0000524B1A6A22F001021A621A6A22F0040294
:100E10001A62E0E74D4B1A6A42F004021A621A6A3B
:100E200042F001021A62D6E7494B98470646474B03
:100E30001B6A13F0020F08D0454B9847801B41F204
:100E400088339842F3D9032077E0E5B9E369002BB2
:100E500072D03E4A526802F00C02082A56D0022B89
:100E600017D03C4B00221A60394B98470446374B49
:100E70001B6813F0007F47D0354B9847001B0228B2
:100E8000F5D9032059E0314AD36923F08053D36167
:100E9000DCE7304B00221A602D4B984705462B4B60
:100EA0001B6813F0007F06D0294B9847401B02288F
:100EB000F5D9032041E0236AB3F5803F1AD02349D6
:100EC0004B6823F47413226A606A024313434B6035
:100ED000204B01221A601E4B984704461B4B1B688F
:100EE00013F0007F0ED11A4B9847001B0228F5D94A
:100EF000032022E0154A536823F40033A1680B4312
:100F00005360DCE7002018E0002016E0012B16D02B
:100F10000E4B5B6803F48031226A914211D103F4D5
:100F20007013626A93420ED1002006E001207047E0
:100F3000012002E0012000E0002002B070BD01208D
:100F4000FBE70120F9E70120F7E700BF00100240AE
:100F5000050B00086000424286B0164B0FCB0DF126
:100F6000180C0CE90F0040F20123ADF80430124BCD
:100F70005B6803F00C02082A02D0104806B07047E4
:100F8000C3F38342624412F8102C13F4803F0CD058
:100F9000094B5B68C3F34043634413F8143C0748B0
:100FA00000FB02F0B0FBF3F0E8E7054800FB02F0BD
:100FB000E4E700BFD44300080010024000127A00AA
:100FC00000093D00002800F0A08070B50D460446E1
:100FD000524B1B6803F007038B420BD24F4A136836
:100FE00023F007030B431360136803F007038B42DE
:100FF00040F08D80236813F0020F17D013F0040F18
:1010000004D0474A536843F4E0635360236813F005
:10101000080F04D0424A536843F460535360404A77
:10102000536823F0F003A1680B435360236813F067
:10103000010F31D06368012B20D0022B25D0384A14
:10104000126812F0020F64D035494A6822F0030298
:1010500013434B60334B98470646314B5B6803F0B4
:101060000C036268B3EB820F16D02E4B9847801B9F
:1010700041F288339842F0D9032045E0284A1268AB
:1010800012F4003FE0D101203EE0254A126812F040
:10109000007FD9D1012037E0204B1B6803F0070304
:1010A000AB420AD91D4A136823F007032B43136090
:1010B000136803F00703AB422DD1236813F0040F2C
:1010C00006D0174A536823F4E063E1680B4353608A
:1010D000236813F0080F07D0114A536823F46053B4
:1010E000216943EAC10353600F4B98470C4B5B687F
:1010F000C3F303130D4AD35CD8400D4B18600D4B5E
:1011000018680D4B9847002070BD012070470120E2
:10111000FAE70120F8E70120F6E700BF00200240CF
:1011200000100240050B0008590F0008E8430008B2
:1011300008000020040000208D1A0008014B1868E8
:10114000704700BF0800002008B5054B9847054BC5
:101150005B68C3F30223044AD35CD84008BD00BFD8
:101160003D11000800100240F843000808B5054B87
:101170009847054B5B68C3F3C223044AD35CD8404D
:1011800008BD00BF3D11000800100240F8430008F0
:101190000F2303600B4B5A6802F0030242605A6847
:1011A00002F0F00282605A6802F4E062C2605B689A
:1011B000DB0803F4E0630361034B1B6803F00703E0
:1011C0000B6070470010024000200240F0B482B073
:1011D00000252C4686E07D4FBB4210D007D97C4FBE
:1011E000BB420CD007F58037BB4208D015E0A7F50D
:1011F0008017BB4203D007F57027BB4209D18B682B
:10120000002B00F0B980012B00F0B180426108256D
:1012100003E0A7F58017BB42F1D0FF2E00F2AE80AD
:101220008446FF2E00F2AD80A200DCF800300F27CC
:10123000974023EA070305FA02F21343CCF8003083
:101240004B6813F0805F4CD0624B9A6942F0010208
:101250009A619B6903F001030193019BA208971C0B
:101260005D4B53F8273004F00307BF004FF00F0C1D
:101270000CFA07FC23EA0C0C584B984200F08780CC
:1012800003F58063984200F0848003F58063984200
:101290007BD00323BB4043EA0C0302324E4F47F896
:1012A00022304B6813F4803F75D04D4A13683343A6
:1012B00013604B6813F4003F73D0494A53683343BB
:1012C00053604B6813F4801F71D0454A93683343D1
:1012D00093604B6813F4001F6FD0414AD3681E43DC
:1012E000D66001340B6833FA04F26CD00122A240BC
:1012F00003EA020632EA0303F3D14B68122B3FF6EE
:101300006AAF122B89D801A757F823F0FF11000804
:101310005913000863130008751300081B12000816
:101320001B1200081B1200081B1200081B120008E9
:101330001B1200081B1200081B1200081B120008D9
:101340001B1200081B1200081B1200081B120008C9
:101350005D13000869130008CD685EE7CD680435A9
:101360005BE7CD68083558E7CD680C3555E7026175
:10137000082552E7002550E704254EE700F1040C4C
:101380004FE7A4F1080292004FE7022382E700230F
:1013900080E701237EE7124A136823EA06031360FD
:1013A00087E70F4A536823EA0603536089E70C4A2C
:1013B000936823EA060393608BE7094AD36823EA1C
:1013C0000606D6608DE702B0F0BC70470000221020
:1013D00000003110001002400000014000080140F0
:1013E000000401400AB101617047090401617047BE
:1013F00008B590F82130022B03D004238363012029
:1014000008BD0268136823F00E03136002681368B6
:1014100023F0010313600368194A934214D0143275
:1014200093421FD0143293421ED0143293421ED0E6
:10143000143293421ED01432934202D04FF0807285
:1014400003E04FF4801200E001220E4B5A600123AA
:1014500080F82130002380F82030436B6BB198472F
:101460000020CDE71022F0E74FF48072EDE74FF453
:101470008052EAE74FF48032E7E70020C0E700BF80
:101480000800024000000240074AD36823F4E063EA
:101490001B041B0C000200F4E060034343F0BF6335
:1014A00043F40033D360704700ED00E030B4174BD5
:1014B000DB68C3F30223C3F10704042C28BF042410
:1014C0001D1D062D18D9033B4FF0FF3505FA04F416
:1014D00021EA0401994005FA03F322EA03031943C0
:1014E00000280BDB0901C9B200F1604000F5614042
:1014F00080F8001330BC70470023E5E700F00F00D0
:101500000901C9B2024B1954F4E700BF00ED00E035
:1015100014ED00E0002807DB00F01F024009012362
:101520009340024A42F82030704700BF00E100E0DB
:101530007047000010B586B0002202920392049218
:101540000592124B996941F010019961996901F076
:10155000100100910099996941F0040199619B691A
:1015600003F004030193019B094C7F212046094BA2
:1015700098477F2302930123039304930223059347
:1015800002A92046044B984706B010BD0010024047
:1015900000100140E5130008CD110008704700005D
:1015A00008B50C480C4B03604FF4164343604FF4EE
:1015B000805383600023C3604FF4806202610C2279
:1015C00042618361C361054B984700B908BD044B74
:1015D0009847FBE7541D002000380140311C0008EB
:1015E0000D02000870B586B00023029303930493A4
:1015F000059302681B4B9A4201D006B070BD03F5FB
:1016000058439A6942F480429A619A6902F480428E
:101610000092009A9A6942F004029A619B6903F071
:1016200004030193019B4FF400730293022303937D
:10163000032305930C4E02A930460C4DA8474FF4E6
:101640008063029300240394049402A93046A847BF
:10165000224607212520064B98472520054B984711
:10166000CBE700BF0038014000080140CD11000861
:10167000AD14000815150008400100F0200001F02D
:101680000F010843054BD860DA6842F04002DA6087
:10169000DA6822F04002DA60704700BF00100140B3
:1016A00070B505460C460909044EB0472146284648
:1016B000B0470220024B984770BD00BF7916000862
:1016C000E130000800B583B01420114CA04702217E
:1016D0000020104B98470220A047282100200E4CE4
:1016E000A0470C210020A04706210020A04702218E
:1016F0000020A0474FF0FF3201A9084B1868084BA3
:1017000098479DF805109DF80400034B9847F1E7B2
:10171000E130000879160008A11600082C0000200E
:10172000D125000810B582B0002202214020084BCC
:101730009847084B1860084B01930223009300233D
:10174000802206490648074CA04702B010BD00BFE2
:10175000B12200082C0000203000002000440008C6
:10176000C5160008792D000810B582B08DF8040068
:101770008DF8051000234FF0FF3201A902480068E0
:10178000024CA04702B010BD2C0000200923000825
:1017900000B583B001220DF107010948094B9847B4
:1017A0004FF0FF310120084B984700234FF0FF32E4
:1017B0000DF1070105480068054CA047EAE700BFA6
:1017C000541D0020E11C0008AD3500083800002041
:1017D0000923000800B583B04FF0FF320DF1070177
:1017E000074B1868074B984701220DF1070106487F
:1017F000064B98474FF0FF310120054B9847EBE728
:1018000044000020D1250008541D0020991C000828
:10181000AD35000802680D4B1B689A4200D0704736
:1018200000B583B00023019301A9094B1868094B47
:101830009847019B3BB1084B4FF080521A60BFF3B1
:101840004F8FBFF36F8F03B05DF804FB541D002072
:10185000480000203136000804ED00E002680D4B1E
:101860001B689A4200D0704700B583B000230193F3
:1018700001A9094B1868094B9847019B3BB1084BDC
:101880004FF080521A60BFF34F8FBFF36F8F03B0DA
:101890005DF804FB541D00203C0000203136000898
:1018A00004ED00E070B582B0154B01930423009362
:1018B0000023802213491448144EB047002201210E
:1018C0008020134DA847134B18600120124CA047ED
:1018D000124B1860124B01931423009300238022B3
:1018E00010491148B047002201218020A8470F4B22
:1018F00018600120A0470E4B186002B070BD00BFF9
:10190000480000200C440008D5170008792D000875
:10191000B122000844000020D52400084000002027
:101920003C0000201C4400089117000838000020EB
:101930003400002070B582B0124C4FF0FF312068A7
:10194000114B9847114E4FF0FF3269463068104DE9
:10195000A8474FF0FF320DF101013068A84700237E
:101960001A46194620680B4CA047BDF800300020ED
:10197000DAB262F30700C3F3072363F30F2002B068
:1019800070BD00BF340000205D2700083800002033
:10199000D12500080923000830B583B04821002074
:1019A000284CA0471F210120A0471F210120A0474C
:1019B0001F210120A0471F210120A0471F21012036
:1019C000A0471F210120A0471F210120A0471E4C36
:1019D000002120461D4DA84704212046A847236822
:1019E00000225A639A631A4B9847ADF80400C3B2B9
:1019F000012B03D0022B0BD0002418E0124B1B68E4
:101A00009DF805205A63802100200E4B9847F3E78C
:101A10000D4B1B689DF805209A63C0210020094BDF
:101A20009847E9E720210120064B984701340F2C05
:101A3000D9D89DF80530A342F4D901210846014BBD
:101A40009847F3E7691700081C1E00208109000869
:101A50003519000810B582B0074B9847074B9847D7
:101A60000023019305220092802205490548064C77
:101A7000A04702B010BD00BFA51800082517000838
:101A80002844000899190008792D000800B589B08C
:101A9000014600221920174B98471920164B9847EA
:101AA000164B9A6942F400629A619B6903F40063E1
:101AB0000193019B02A903A8114B9847114B98472A
:101AC000114BA3FB00239B0C013B1048104A026002
:101AD00040F2E732C26043600023036183600D4B34
:101AE000984718B1012009B05DF804FB07480A4B7C
:101AF0009847F8E7AD1400081515000800100240DB
:101B0000911100086D11000883DE1B43941D002015
:101B1000002C014055060008ED0300080268D36858
:101B200023F49073D3600268536923F00103536177
:101B3000202380F83A30704790F83930DBB2212BFF
:101B400001D0022070478368B3F5805F17D0036A25
:101B50005A1C02621A7803685A60C38C9BB2013B1C
:101B60009BB2C3844BB90268D36823F08003D3606F
:101B70000268D36843F04003D360002070470369D4
:101B8000002BE4D1036A1B880268C3F30803536087
:101B9000036A02330362E0E710B504460268136982
:101BA00023F44053C1680B431361836802691343F4
:101BB00042691A430168CB6823F4B05323F00C0345
:101BC0001343CB600268536923F4407381690B436C
:101BD00053610268124B9A421FD0124B984700EB98
:101BE000800303EB830362689200B3FBF2F20E48BA
:101BF000A0FB02314909642303FB11231B0132338B
:101C0000A0FB03235B0903F0F00202EB011203F0D7
:101C10000F03216813448B6010BD044B9847DEE727
:101C200000380140491100081F85EB516D11000873
:101C300058B310B5044690F839300BB3242384F818
:101C400039302268D36823F40053D3602046104B08
:101C500098472268136923F49043136122685369FB
:101C600023F02A0353612268D36843F40053D360FE
:101C70000020E063202384F8393084F83A3010BD26
:101C800080F83830034B9847D8E70120704700BFF1
:101C9000991B0008E515000890F83930DBB2202BBD
:101CA00016D1B9B1C2B190F83830012B16D001620B
:101CB0008284C2840023C363212280F8392080F803
:101CC00038300168CA6842F08002CA60184670471E
:101CD00002207047012070470120704702207047A2
:101CE00090F83A30DBB2202B20D109B312B390F830
:101CF0003830012B20D081628285C2850023C363E6
:101D0000222280F83A2080F838300168CA6842F40C
:101D10008072CA6001684A6942F001024A61016842
:101D2000CA6842F02002CA60184670470220704715
:101D300001207047012070470220704708B50168F4
:101D4000CA6822F04002CA60202280F83920024B83
:101D50009847002008BD00BF1518000808B590F886
:101D60003A30DBB2222B41D18368B3F5805F14D0C7
:101D7000826AB3F5805F02D0E3B90369D3B903681F
:101D80005B681370836A01338362C38D9BB2013B2E
:101D90009BB2C385A3B1002008BD0269002AE7D128
:101DA000826A03685B68C3F308031380836A0233A3
:101DB0008362EAE703685B6803F07F031370E1E77F
:101DC0000268D36823F02003D3600268D36823F449
:101DD0008073D3600268536923F0010353612023A9
:101DE00080F83A30024B98470020D5E70220D3E72D
:101DF0005D1800087047000010B5044602681368BB
:101E0000D168526913F00F0005D113F0200F02D0F2
:101E100011F0200F13D128B112F0010213D111F4E7
:101E2000907F10D113F0800F02D011F0800F6CD191
:101E300013F0400F02D011F0400F6AD110BD2046C0
:101E4000364B9847FAE713F0010F06D011F4807F64
:101E500003D0E06B40F00100E06313F0040F04D006
:101E60001AB1E06B40F00200E06313F0020F04D0FF
:101E70001AB1E06B40F00400E06313F0080F07D0E4
:101E800011F0200F00D11AB1E26B42F00802E263B8
:101E9000E26B002AD2D013F0200F02D011F0200FF5
:101EA00021D123685B6903F04003E26B12F0080F55
:101EB00000D123B320461A4B984723685A6912F081
:101EC000400F18D05A6922F040025A61636B73B117
:101ED000144A5A63606B144B98470028AED0606B6D
:101EE000436B9847AAE720460C4B9847D9E7204612
:101EF0000E4B9847A2E720460C4B98479EE720469A
:101F00000A4B98470023E36398E72046084B98471D
:101F100094E72046074B984790E700BF5D1D0008F7
:101F20001D1B0008391F0008F1130008F51D0008EB
:101F3000391B00083D1D000808B5406A0023C38511
:101F4000C384014B984708BDF51D000800F1080344
:101F500043604FF0FF328260C3600361002303607F
:101F6000704700230361704743684B609A688A603A
:101F7000516099600861036801330360704730B4B1
:101F80000D68B5F1FF3F11D000F108031C465B68F6
:101F90001A68AA42FAD963684B6099608C606160E4
:101FA000086103680133036030BC70470469F2E7DD
:101FB0000369416882688A60416851605A68824258
:101FC00006D0002202611A68013A1A601868704748
:101FD00082685A60F5E70346406A18B11B6B1868BF
:101FE000C0F138007047000010B50446064B984712
:101FF000A26BE36B9A4204D00024044B984720461E
:1020000010BD0124F9E700BF653F0008A93F0008A3
:1020100010B50446054B9847A36B23B90124044B24
:102020009847204610BD0024F9E700BF653F00082F
:10203000A93F000870B504461546866B026C5AB974
:1020400003681BB100200136A66370BD4068174BC2
:10205000984700236360F6E76DB98068144B984792
:10206000226CA3681344A3606268934219D3236867
:10207000A3602846E7E7C0680D4B9847226C5142A1
:10208000E3689B1AE3602268934202D263680B44C0
:10209000E360022D01D00020D5E726B1013E0020EB
:1020A000D1E72846CFE70020CDE700BF4D34000838
:1020B000914300080346026C6AB110B50846D9681E
:1020C0001144D9605C68A14201D31968D960D9680C
:1020D000014B984710BD70479143000838B505463D
:1020E0001A4B984795F8454064B203E0184B98475F
:1020F000013C64B2002C08DD6B6A33B105F12400A9
:10210000144B98470028F3D0F0E7FF2385F84530BB
:10211000114B98470D4B984795F8444064B203E043
:102120000B4B9847013C64B2002C08DD2B6933B19E
:1021300005F11000074B98470028F3D0F0E7FF2384
:1021400085F84430044B984738BD00BF653F000810
:102150008133000845320008A93F000838B5E0B1D6
:102160000D4604461D4B98472168E26B236C03FB28
:10217000021060600020A063A160013A02FB03131B
:10218000E360FF2384F8443084F84530EDB92369D7
:1021900063B9134B9847012038BD4FF0500383F3C8
:1021A0001188BFF36F8FBFF34F8FFEE704F110006C
:1021B0000C4B98470028ECD00B4B4FF080521A6024
:1021C000BFF34F8FBFF36F8FE3E704F11000074DAC
:1021D000A84704F12400A847DBE700BF653F0008DB
:1021E000A93F00084532000804ED00E04D1F00083B
:1021F00038B51D46049C0B4649B92460E06323644E
:1022000001212046034B984784F84C5038BD22608A
:10221000F4E700BF5D21000840B94FF0500383F39D
:102220001188BFF36F8FBFF34F8FFEE730B585B0D6
:102230001C46054653B192B189B94FF0500383F360
:102240001188BFF36F8FBFF34F8FFEE74FF050033E
:1022500083F31188BFF36F8FBFF34F8FFEE76AB12F
:1022600050230393039B502B13D04FF0500383F361
:102270001188BFF36F8FBFF34F8FFEE70029EFD0B8
:102280004FF0500383F31188BFF36F8FBFF34F8F6D
:10229000FEE7012384F8463000949DF8203028465C
:1022A000024DA847204605B030BD00BFF12100080F
:1022B00040B94FF0500383F31188BFF36F8FBFF322
:1022C0004F8FFEE7F0B583B00C4616460746A1B126
:1022D00001FB00F050300A4B9847054650B10023EF
:1022E00080F846300090334600F1500221463846CF
:1022F000044CA047284603B0F0BD0846EAE700BFFB
:10230000413D0008F1210008F0B585B0019288B187
:102310000E461D460446B1B1022D20D1E36B012BC0
:102320001DD04FF0500383F31188BFF36F8FBFF3BD
:102330004F8FFEE74FF0500383F31188BFF36F8F89
:10234000BFF34F8FFEE7036C002BE5D04FF0500337
:1023500083F31188BFF36F8FBFF34F8FFEE7494BB5
:102360009847074658B9019B002B44D04FF05003C3
:1023700083F31188BFF36F8FBFF34F8FFEE7002702
:1023800039E02A46314620463F4B9847626A6AB98F
:1023900038B13E4B4FF080521A60BFF34F8FBFF3FE
:1023A0006F8F3B4B9847012005B0F0BD04F124002E
:1023B000384B98470028F4D0344B4FF080521A60C5
:1023C000BFF34F8FBFF36F8FEBE7314B9847002080
:1023D000EAE702A8304B9847012719E0002384F868
:1023E000443021E0002384F8453023E020462B4B85
:1023F00098472B4B98472B4B9847A26BE36B9A421D
:10240000BFD3022DBDD0019B002BDED0002FE0D02A
:102410001F4B9847244B9847224B984794F84430D9
:102420005BB2B3F1FF3FD9D094F845305BB2B3F162
:10243000FF3FD7D0164B984701A902A81B4B9847DE
:10244000C8B920461A4B98470028CFD0019904F10B
:102450001000184B98472046104B9847104B984750
:102460000028C8D1094B4FF080521A60BFF34F8F3C
:10247000BFF36F8FBFE72046084B9847084B98473C
:10248000002091E78D3300083520000804ED00E0BE
:10249000A93F000845320008D9320008DD200008B5
:1024A000D52F0008653F0008952E0008F13200087E
:1024B000E91F0008CD31000848B110B50021416086
:1024C0000160C1600B460A46014CA04710BD704731
:1024D0000923000810B5024600210120034B98474C
:1024E0000446034B9847204610BD00BFB1220008A8
:1024F000B92400082DE9F84390B1894690461F465B
:102500000446B1B1022F20D1E36B012B1DD04FF057
:10251000500383F31188BFF36F8FBFF34F8FFEE734
:102520004FF0500383F31188BFF36F8FBFF34F8FCA
:10253000FEE7036C002BE5D04FF0500383F31188C6
:10254000BFF36F8FBFF34F8FFEE71E4B9847EFF33C
:1025500011864FF0500383F31188BFF36F8FBFF3E1
:102560004F8FA26BE36B9A4206D3022F04D0002058
:1025700086F31188BDE8F88394F845506DB23A4669
:1025800049462046104B9847B5F1FF3F05D06B1CDC
:102590005BB284F845300120EAE7636A0BB9012099
:1025A000E6E704F12400094B984730B1B8F1000F79
:1025B00005D00120C8F80000DAE70120D8E70120A3
:1025C000D6E700BF3D41000835200008453200082D
:1025D000F0B585B0019290B10E460446C1B1524BA0
:1025E0009847074600BB019B002B5CD04FF050037F
:1025F00083F31188BFF36F8FBFF34F8FFEE74FF068
:10260000500383F31188BFF36F8FBFF34F8FFEE743
:10261000036C002BE3D04FF0500383F31188BFF31A
:102620006F8FBFF34F8FFEE700273CE03146204617
:102630003E4B9847013DA563236923B93C4B98471E
:10264000012005B0F0BD04F110003A4B9847002876
:10265000F4D0394B4FF080521A60BFF34F8FBFF365
:102660006F8FEBE7324B98470020EAE702A8334B25
:102670009847012721E0002384F8443029E0002313
:1026800084F845302BE020462D4B98472D4B98473A
:1026900009E020462A4B98472A4B984720462A4B68
:1026A000984700283DD1294B9847A56B002DBDD1F7
:1026B000019B002BD6D0002FD8D01D4B9847244B20
:1026C0009847224B984794F844305BB2B3F1FF3FF0
:1026D000D1D094F845305BB2B3F1FF3FCFD0144B6B
:1026E000984701A902A81B4B98470028D1D1204642
:1026F000154B98470028C6D0019904F12400164BC9
:10270000984720460E4B98470E4B98470028CAD151
:10271000094B4FF080521A60BFF34F8FBFF36F8F9A
:10272000C1E700208DE700BF8D330008B520000809
:10273000A93F00084532000804ED00E0D932000846
:10274000DD200008D52F000811200008653F000893
:10275000952E0008F1320008CD31000870B584B024
:10276000019158B10446036C8BB14FF0500383F3D1
:102770001188BFF36F8FBFF34F8FFEE74FF0500309
:1027800083F31188BFF36F8FBFF34F8FFEE75B4B6F
:102790009847064650B9019B5BB14FF0500383F355
:1027A0001188BFF36F8FBFF34F8FFEE700252E46D2
:1027B00053E0054651E0013BA36323683BB1236925
:1027C0004BB94F4B98470125284604B070BD4D4B7F
:1027D00098476060F3E704F110004B4B98470028DE
:1027E000EFD04A4B4FF080521A60BFF34F8FBFF3C8
:1027F0006F8FE6E745B14FF0500383F31188BFF3C5
:102800006F8FBFF34F8FFEE73D4B9847DCE702A881
:102810003F4B984701262AE0002384F8443032E0F9
:10282000002384F8453034E03A4B984760683A4BCF
:1028300098470546324B98473BE02046374B984730
:10284000374B984709E02046344B9847344B98471C
:102850002046344B9847002840D12E4B9847A36B15
:10286000002BA8D1019B002BC4D0002ECFD0244B2D
:1028700098472D4B9847274B984794F844305BB2C4
:10288000B3F1FF3FC8D094F845305BB2B3F1FF3FDE
:10289000C6D01B4B984701A902A8244B9847002893
:1028A000D1D120461F4B98470028C6D02368002B63
:1028B000BAD0019904F124001D4B98472046174BCC
:1028C0009847174B98470028C7D1104B4FF08052BC
:1028D0001A60BFF34F8FBFF36F8FBEE70DB90025AE
:1028E00072E70C4B98472046124B984701466068A8
:1028F000114B9847024B9847F1E700BF8D33000812
:10290000A93F0008913500084532000804ED00E0B9
:10291000D9320008653F0008AD330008DD2000080B
:10292000D52F000811200008952E0008F13200086C
:10293000CD310008D71F0008E5340008002300E06F
:102940000133072B0BD8064A52F83320002AF7D15F
:10295000034A42F8331002EBC303586070477047D4
:10296000DC1D002070B504460D461646124B9847F4
:1029700094F844305BB2B3F1FF3F0DD094F845308A
:102980005BB2B3F1FF3F0BD00C4B9847A36B5BB12D
:1029900020460B4B984770BD002384F84430EDE788
:1029A000002384F84530EFE73246294604F124003D
:1029B000044B9847ECE700BF653F0008A93F0008BB
:1029C000DD20000805320008084B1B681B6823B98E
:1029D000074B4FF0FF321A607047044B1B68DB68EF
:1029E000DB685A68024B1A60704700BF5000002035
:1029F000F80400202DE9F84F80460D461746994609
:102A00000A9EDDF82CA00C9C9200A521206B1D4B8A
:102A10009847236B07F18042013A03EB820727F0C6
:102A2000070700220F2A07D8A95CA31883F83410DF
:102A3000AB5C0BB10132F5E7002384F84330372E4D
:102A400000D93726E662E66400252565201DDFF8FB
:102A50003CB0D84704F11800D8472461C6F13806C5
:102A6000A6616462656584F858504A464146384616
:102A7000054B98472060BAF1000F01D0CAF800401A
:102A8000BDE8F88FAD4300081D3F0008631F000834
:102A900070B50024372C08D804EB840293000C484E
:102AA00018440C4B98470134F4E70B4E3046094C60
:102AB000A0470A4D2846A0470948A0470948A04713
:102AC0000948A047094B1E60094B1D6070BD00BF3F
:102AD000580000204D1F0008D0040020E40400200E
:102AE000000500202C0500201805002050000020C3
:102AF0005400002010B50446224B9847224A136820
:102B000001331360214B1B685BB1214B1B686BB910
:102B10001E4B1B68DA6AE36A9A4207D81B4B1C609B
:102B200004E01A4B1C601368012B27D0194A136864
:102B3000013313606364E06A174B1B68984201D944
:102B4000154B186000EB8000211D144B03EB800037
:102B5000134B9847134B98470D4B1B686BB10B4BAE
:102B60001B68DA6AE36A9A4207D20F4B4FF0805231
:102B70001A60BFF34F8FBFF36F8F10BD0B4B984799
:102B8000D4E700BF653F0008B80400204C000020D7
:102B900014050020C8040020CC04002058000020A8
:102BA000691F0008A93F000804ED00E0912A000811
:102BB00038B5044690F8593063B1012B10D0022B80
:102BC0000DD04FF0500383F31188BFF36F8FBFF325
:102BD0004F8FFEE7006B044DA8472046A84738BD3D
:102BE000014B9847FBE700BF413E00080F4B1B68B5
:102BF000D3B110B50E4B98470E4BDB68DC68201D37
:102C00000D4B98470D4A1368013B1360074A136840
:102C1000013B13600A4B984720460A4B9847034BE9
:102C20001B68002BE6D110BD704700BFBC0400201C
:102C3000653F00082C050020B11F0008B8040020E3
:102C4000A93F0008B12B000808B5074B9847074B70
:102C50001B68012BF9D9064B4FF080521A60BFF365
:102C60004F8FBFF36F8FF0E7ED2B00085800002067
:102C700004ED00E070B504460D46174B1E68174B77
:102C800018680430164B9847B4F1FF3F0DD0344418
:102C9000124B1B685C60A64210D9124B18680F4B90
:102CA00019680431104B984770BD002DEFD00B4BC5
:102CB000196804310D480E4B9847F5E70D4B18681D
:102CC000064B19680431084B98470B4B1B68A3420D
:102CD000EAD9094B1C60E7E7400500204C000020C2
:102CE000B11F0008540000207F1F000818050020B5
:102CF000691F000850000020F804002070B586B05D
:102D00000B9D0C9C75B1B4B15C260496049E5C2EA0
:102D10001AD04FF0500383F31188BFF36F8FBFF3C6
:102D20004F8FFEE74FF0500383F31188BFF36F8F8F
:102D3000BFF34F8FFEE74FF0500383F31188BFF3CB
:102D40006F8FBFF34F8FFEE72563022584F859503C
:102D500000250395029405AD01950A9D0095044D4B
:102D6000A8472046034B9847059806B070BD00BFA2
:102D7000F5290008F52A00082DE9F04385B005463D
:102D80000E46144698469000154A904700B3814677
:102D90005C20134B98470746B0B1C0F83090E7B1BC
:102DA000002387F85930039302970D9B01930C9BE6
:102DB000009343462246314628460A4CA0473846EF
:102DC000094B9847012005E04846084B9847E6E73D
:102DD0004FF0FF3005B0BDE8F0834FF0FF30F9E76A
:102DE000413D0008F5290008F52A0008413E000889
:102DF00010B588B000240594069407AA06A905A872
:102E00001B4B9847059B0293069B01930094234616
:102E1000079A18491848194CA04748B1184B9847C9
:102E20000346012B06D0B3F1FF3F18D008B010BD08
:102E30000023F6E74FF0500383F31188BFF36F8F41
:102E4000BFF34F8F0F4B4FF0FF321A600E4B012232
:102E50001A600E4B00221A600D4B9847E6E74FF0C0
:102E6000500383F31188BFF36F8FBFF34F8FFEE7DB
:102E7000593C000834440008492C0008FD2C000887
:102E8000F9370008F8040020140500204005002050
:102E90008D400008024A136801331360704700BF79
:102EA000C4040020014B1868704700BF4005002093
:102EB000F8B53A4B1B68002B65D1394B1D680135BD
:102EC0001D60C5B9374B1B681B6843B14FF05003F9
:102ED00083F31188BFF36F8FBFF34F8FFEE7314A43
:102EE0001168314B186810601960304A136801335B
:102EF00013602F4B98472F4B1B68AB420CD9002413
:102F00002D4B1B68DB6A03EB83039A002B4B9B580A
:102F1000012B3DD901243BE0002416E0254B4FF066
:102F2000FF321A60ECE7234A1360E9E703EB8303FF
:102F30009A00394621481044214B9847F26A1E4BAB
:102F40001B68DB6A9A4200D30124164B1B681B687E
:102F5000002BE3D0134B1B68DB68DE6873689D426F
:102F6000E1D3371D3846174B9847B36A1BB106F1BA
:102F70001800144B9847F36A134A12689342D5D944
:102F8000114A1360D2E7114A136801331360002419
:102F90000F4B1B6803B101242046F8BDC404002078
:102FA000400500205000002054000020FC040020B8
:102FB000C9290008F80400204C0000205800002017
:102FC000691F0008B11F0008CC040020C0040020C5
:102FD00044050020334B1B6843B94FF0500383F383
:102FE0001188BFF36F8FBFF34F8FFEE770B52E4B85
:102FF00098472C4B1A68013A1A601B68002B4CD179
:103000002A4B1B680BB9002448E00024284B1B689E
:1030100013B3274BDB68DC6804F11800254EB0477A
:10302000251D2846B047E06A234B1B68984201D90A
:10303000214B186000EB80002946204B03EB8000F9
:103040001F4B9847E26A1F4B1B68DB6A9A42DDD32D
:103050001D4B01221A60D9E70CB11C4B98471C4B41
:103060001C6874B9184B1C68C4B11A4B4FF08052DD
:103070001A60BFF34F8FBFF36F8F01240EE0013C46
:1030800007D0154B98470028F9D00F4B01221A6042
:10309000F5E70F4B00221A60E4E700240F4B984736
:1030A000204670BDC4040020653F0008B80400201D
:1030B00000050020B11F0008CC04002058000020AB
:1030C000691F00084C00002044050020C9290008A1
:1030D000C004002004ED00E0B12E0008A93F000864
:1030E00010B5A8B104460F4B1B6843B14FF0500315
:1030F00083F31188BFF36F8FBFF34F8FFEE70A4B47
:10310000984700212046094B9847094B984738B902
:10311000084B4FF080521A60BFF34F8FBFF36F8F91
:1031200010BD00BFC4040020952E0008752C0008B7
:10313000D52F000804ED00E01F4B1B681BB11F4B8F
:1031400001221A6070471D4B00221A601C4B1B683D
:1031500003EB83018A001B498A585AB90BB1013B22
:10316000F6E74FF0500383F31188BFF36F8FBFF37F
:103170004F8FFEE710B403EB830082000A445068CF
:103180004068506003EB8304A200144608321144E7
:1031900088420CD003EB830291000A4A0A44526829
:1031A000D168094A1160064A136010BC7047406834
:1031B000044A22445060EDE7C40400204405002086
:1031C000CC040020580000204C00002058B110B55D
:1031D0000C46094B19681831084B984701212046C5
:1031E000074B984710BD4FF0500383F31188BFF38E
:1031F0006F8FBFF34F8FFEE74C0000207F1F00084A
:10320000752C000838B570B10C4615460A4B196884
:1032100018310A4B98470DB14FF0FF34294620462C
:10322000074B984738BD4FF0500383F31188BFF325
:103230006F8FBFF34F8FFEE74C000020691F00081F
:10324000752C000838B5C368DC6824B304F1180590
:103250002846194B9847194B1B682BBB251D284640
:10326000154B9847E06A164B1B68984201D9144BDE
:10327000186000EB80002946124B03EB8000124BD4
:103280009847E26A114B1B68DB6A9A4211D9012008
:103290000F4B18600EE04FF0500383F31188BFF31B
:1032A0006F8FBFF34F8FFEE729460A48064B9847BA
:1032B000E7E7002038BD00BFB11F0008C4040020AC
:1032C000CC04002058000020691F00084C0000209A
:1032D0004405002000050020034B1B680360034BDE
:1032E0001B684360704700BFFC04002040050020BD
:1032F000F8B5C8B10C460546F9B11C4B98471C4BB4
:1033000019686B68C81A2268B2F1FF3F26D02F688F
:10331000184E3668B74201D08B4224D9824215D864
:103320000023236001241AE04FF0500383F3118837
:10333000BFF36F8FBFF34F8FFEE74FF0500383F360
:103340001188BFF36F8FBFF34F8FFEE75B1A1344F3
:1033500023602846084B9847002400E00024074BD0
:1033600098472046F8BD0124F9E700BF653F0008F3
:1033700040050020FC040020D9320008A93F0008C5
:10338000014B01221A60704744050020054B1B6861
:1033900033B1054B1B680BB100207047022070470A
:1033A0000120704714050020C404002000283FD0ED
:1033B00038B50446C36A204A1268D26A93422FD2B3
:1033C0008269002A05DB1C4A1268D26AC2F13802FF
:1033D0008261616903EB8303184A02EB830399421C
:1033E00005D0154B1B68DB6AE362012038BD251D43
:1033F0002846134B9847104B1B68D86AE062114B64
:103400001B68984209D800EB800029460B4B03EB60
:1034100080000D4B98470120E8E70A4B1860F2E75F
:10342000C26C054B1B68DB6A9A4203D30020DDE7C0
:10343000002070470120D9E74C00002058000020F0
:10344000B11F0008CC040020691F000800283BD0F1
:1034500038B504461E4B1B68834208D04FF050031A
:1034600083F31188BFF36F8FBFF34F8FFEE7036DB8
:1034700043B94FF0500383F31188BFF36F8FBFF34D
:103480004F8FFEE7013B0365C16AC26C91421DD0BC
:103490000BB1002038BD051D28460E4B9847E06C47
:1034A000E062C0F13803A3610B4B1B68984201D95D
:1034B000094B186000EB80002946084B03EB8000A5
:1034C000074B98470120E5E7002070470020E1E71F
:1034D0004C000020B11F0008CC0400205800002040
:1034E000691F0008002847D038B50A460446016D18
:1034F00041B94FF0500383F31188BFF36F8FBFF3CF
:103500004F8FFEE7C36C934200D21346E26A9A42A1
:1035100001D0012900D038BD18490968A14222D044
:10352000E362A169002902DBC3F13803A361616989
:1035300002EB8202124B03EB82029142EBD1251D7A
:103540002846104B9847E06A0F4B1B68984201D9F8
:103550000D4B186000EB80002946094B03EB8000FF
:103560000A4B9847D7E74FF0500383F31188BFF316
:103570006F8FBFF34F8FFEE7704700BF4C000020F6
:1035800058000020B11F0008CC040020691F00086B
:10359000054B1B6823B1044B1A68136D0133136587
:1035A000014B1868704700BF4C00002038B5044636
:1035B0000D461A4B98471A4B1B685B6D2BB9184B7D
:1035C0001B68012283F85820ADB9164B9847134B5E
:1035D0009847134B1B685D6D25B1CCB1104B1B6830
:1035E00000225A650E4B1B68002283F858200D4BB1
:1035F0009847284638BD114628460B4B98470B4B39
:103600004FF080521A60BFF34F8FBFF36F8FDCE72C
:10361000034B1B686A1E5A65E4E700BF653F00085C
:103620004C000020A93F0008752C000804ED00E0C4
:10363000F8B5D8B10D4604462B4B9847EFF31186E9
:103640004FF0500383F31188BFF36F8FBFF34F8F99
:1036500094F85830DBB2022284F85820626D0132AF
:103660006265012B0BD086F31188F8BD4FF0500333
:1036700083F31188BFF36F8FBFF34F8FFEE7A36A09
:1036800043B14FF0500383F31188BFF36F8FBFF343
:103690004F8FFEE7154B1B68E3B9271D3846144BC7
:1036A0009847E06A134B1B68984201D9114B186088
:1036B00000EB80003946104B03EB80000F4B98471E
:1036C000E26A0F4B1B68DB6A9A42CCD945B10123F1
:1036D0002B60C8E704F118010A48084B9847EFE748
:1036E000094B01221A60BEE73D410008C4040020D6
:1036F000B11F0008CC04002058000020691F0008FA
:103700004C0000200005002044050020064B1A68EC
:103710001368B3FA83F35B09036013B9D3681868BD
:1037200070470020704700BF4805002008B5416081
:10373000006191420CD8D21A83699A4201D30120C8
:1037400008BD011D094B1868094B98470020F7E791
:103750009A4201D2994206D2011D064B1868044BC9
:1037600098470020ECE70120EAE700BF4C05002065
:103770007F1F00084805002070B582B0114B9847A4
:10378000114B1B681BB1114B984702B070BD104D17
:103790002846104EB047104C2046B0470F4B1D60D6
:1037A0000F4B1C60002300930E4B0F4A10210A2080
:1037B0000E4CA047044B18600028E4D00C490D4B78
:1037C0009847E0E7653F00086C060020A93F000825
:1037D000F00500204D1F00080406002048050020C9
:1037E0004C0500201C06002050050020192200086E
:1037F0003C4400083D29000810B588B0134B984799
:10380000134B1B68CBB100240594069407AA06A9A4
:1038100005A8104B9847059B0293069B0193022332
:1038200000932346079A0C490C480D4CA0470D4ABB
:10383000106010B1012008B010BD4FF0500383F3A9
:103840001188BFF36F8FBFF34F8FFEE77937000802
:103850006C060020713C000844440008A13B0008AD
:10386000FD2C000870060020C0B110B584B01446CD
:103870001A4603461648006838B300910194029333
:1038800005291CDC134B9847022810D000231A4648
:1038900069460F480068104CA04714E04FF05003F1
:1038A00083F31188BFF36F8FBFF34F8FFEE70023C1
:1038B000069A694606480068074CA04703E00023C3
:1038C0006946064CA04704B010BD0020FBE700BFCE
:1038D0006C0600208D33000809230008F524000839
:1038E00070B582B01B4B1B681A68002A2AD0DB68AF
:1038F0001E68DC68251D2846174B9847636A2046DA
:103900009847E369012BEDD1A36933449E4207D266
:103910006360246129460F4B1868104B9847E1E714
:10392000002100910B46324620460D4CA04700284E
:10393000D8D14FF0500383F31188BFF36F8FBFF3DB
:103940004F8FFEE7074A106802490860136002B013
:1039500070BD00BF48050020B11F00087F1F000890
:10396000693800084C05002038B50546084B9847D3
:103970000446084B1B68834205D800232B60054B87
:103980001C60204638BD044B984701232B60F6E7A6
:10399000A52E000818060020E138000870B582B096
:1039A00005460E46144B1B68DB68DC68201D134B74
:1039B0009847E369012B04D0636A2046984702B018
:1039C00070BDA1692B463246294420460C4EB047B3
:1039D0000028F1D0002100910B462A462046094DCF
:1039E000A8470028E8D14FF0500383F31188BFF3B4
:1039F0006F8FBFF34F8FFEE748050020B11F00080F
:103A00002D3700086938000870B582B006460C46AC
:103A1000174B984701A8174B9847019B1BBB0546BE
:103A20000CB9B04218D22CB1134B1B681C68B4FA05
:103A300084F464092246711B104B1868104B984798
:103A4000104B984788B9104B4FF080521A60BFF363
:103A50004F8FBFF36F8F08E00A4B984729463046D7
:103A60000A4B984701E0074B984702B070BD00BF72
:103A7000952E0008693900084C0500206C060020CE
:103A800065290008D52F000804ED00E09D390008E5
:103A900030B589B006E007990698059B9847049BC6
:103AA000002B0BDA002204A9364B1868364B9847D6
:103AB000002865D0049B002BF1DAECE7069C6369D3
:103AC00013B1201D314B984703A8314B9847049BF5
:103AD000092BE7D801A252F823F000BF053B0008EC
:103AE000053B0008053B0008A53A00084B3B0008D1
:103AF000713B0008053B0008053B0008A53A00089B
:103B00004B3B0008059BA169024619442046214D04
:103B1000A8470028C6D0636A20469847E369012B6E
:103B2000C0D1A269002100910B46059802442046AD
:103B3000194CA0470028B5D14FF0500383F31188EA
:103B4000BFF36F8FBFF34F8FFEE70599A16131B1CE
:103B500003460246014420460E4CA047A2E74FF020
:103B6000500383F31188BFF36F8FBFF34F8FFEE7CE
:103B700094F82C30002B95D12046084B984791E7BC
:103B800009B030BD6C060020D1250008B11F000827
:103B9000693900082D37000869380008413E0008DF
:103BA00000B583B001A8044B98470199034B98478F
:103BB000034B9847F6E700BF0D370008093A0008A5
:103BC000913A0008EFF3058393B9EFF3108393B9AB
:103BD0000C4B1868022804D080B90A4B01221A60E5
:103BE0007047EFF31183002BF6D06FF0050070479C
:103BF0006FF0050070476FF0050070474FF0FF3021
:103C0000704700BFD008002008B5EFF30583B3B9B3
:103C1000EFF31083B3B90E4B1B68022B08D0012BB6
:103C200013D10B4B02221A600A4B9847002008BDA3
:103C3000EFF31182002AF2D06FF00500F7E76FF082
:103C40000500F4E76FF00500F1E74FF0FF30EEE715
:103C5000D0080020F12D0008034B0360034B0B60DC
:103C600080231360704700BF740800207406002092
:103C7000034B0360034B0B604FF48073136070477A
:103C8000D40C0020D4080020124A12F0070F1ED0D6
:103C9000D11D21F00701C1F5805313440A460E4897
:103CA0000260002141601344083B23F007030B48E6
:103CB000036059601960991A51601360084B1960CC
:103CC000084B1960084B4FF000421A6070474FF4E0
:103CD0008053E4E7340D0020401D0020300D00200B
:103CE0003C1D0020381D0020341D002010B4124B54
:103CF0001A461B688342FBD351685418844209D08A
:103D000041684418A3420AD00360904200D010607A
:103D100010BC70474068014451601046F0E7074C02
:103D20002468A34206D05B681944416013681B688D
:103D30000360EAE70460E8E7401D0020300D002042
:103D400070B50446354B9847354B1B68A3B1354BCE
:103D50001B681C424AD134B1083414F0070F02D05A
:103D600024F007040834002C42D02F4B1B68A342D8
:103D70004DD32E4B1D6804E02D4B9847E7E72B46AB
:103D800015466A68A24202D22A68002AF7D1244A5C
:103D90001268AA423DD01E6808362A681A606B680D
:103DA0001B1B102B10D9281910F0070F08D04FF04B
:103DB000500383F31188BFF36F8FBFF34F8FFEE77C
:103DC00043606C601B4B98476A6817490B689B1AE5
:103DD0000B60194909688B4201D217490B60114BDE
:103DE0001B6813436B6000232B6002E0002600E099
:103DF0000026124B984716F0070F0CD04FF05003D7
:103E000083F31188BFF36F8FBFF34F8FFEE7002658
:103E1000EFE70026EDE7304670BD00BF952E0008A5
:103E2000300D0020341D0020381D0020401D0020D2
:103E3000893C0008ED3C00083C1D0020D52F0008FF
:103E4000002830D038B50446A0F1080550F8043CED
:103E5000154A1268134208D14FF0500383F31188BA
:103E6000BFF36F8FBFF34F8FFEE750F8081C41B1CF
:103E70004FF0500383F31188BFF36F8FBFF34F8F61
:103E8000FEE723EA020340F8043C084B984754F845
:103E9000041C074A13680B4413602846054B9847D7
:103EA000054B984738BD7047341D0020952E0008FB
:103EB000381D0020ED3C0008D52F000882B00023FB
:103EC00001930D4B1B68B3F1FF3F08D04FF0500337
:103ED00083F31188BFF36F8FBFF34F8FFEE74FF06F
:103EE000500383F31188BFF36F8FBFF34F8F019B94
:103EF000002BFCD002B070470C0000200648006880
:103F0000006880F3088862B661B6BFF34F8FBFF3D5
:103F10006F8F00DF00BF000008ED00E04FF08073FE
:103F200040F8043C21F0010140F8081C034B40F824
:103F30000C3C40F8202C4038704700BFBD3E0008C4
:103F4000074B19680868B0E8F00F80F30988BFF3E1
:103F50006F8F4FF0000080F311884EF00D0E704708
:103F60004C0000204FF0500383F31188BFF36F8F94
:103F7000BFF34F8F0A4A136801331360012B00D03F
:103F80007047084B1B6813F0FF0FF9D04FF0500338
:103F900083F31188BFF36F8FBFF34F8FFEE700BF2E
:103FA0000C00002004ED00E0094B1B6843B94FF002
:103FB000500383F31188BFF36F8FBFF34F8FFEE77A
:103FC000013B034A13600BB983F31188704700BFAC
:103FD0000C000020000000000000000000000000B5
:103FE000EFF30980BFF36F8F0D4B1A6820E9F00FD4
:103FF00010602DE908404FF0500080F31188FFF762
:104000009BF84FF0000080F31188BDE80840196864
:104010000868B0E8F00F80F30988BFF36F8F70472E
:104020004C00002008B54FF0500383F31188BFF314
:104030006F8FBFF34F8F054B984718B1044B4FF06C
:1040400080521A60002383F3118808BDB12E000846
:1040500004ED00E0084A0023136008490B60084B98
:104060001B680849A1FB03139B09013B06490B6030
:1040700007231360704700BF10E000E018E000E085
:1040800008000020D34D621014E000E010B582B0AB
:10409000214B1A78D2B20192FF221A701B78DBB240
:1040A0008DF803309DF8033003F050031B4A137062
:1040B0001B4B07221A609DF8033013F0800F0AD0C3
:1040C000174A1368013B13609DF803305B00DBB2B5
:1040D0008DF80330EFE7124A13681B0203F4E06324
:1040E0001360019BDBB20C4A13700E4B1A6842F44A
:1040F00070021A601A6842F070421A600A4B9847C0
:1041000000240A4B1C600A4B98470A4B98470A4BFD
:104110009847204602B010BD00E400E0481D002092
:104120004C1D002020ED00E0554000080C00002050
:10413000FD3E000839310008BD3E0008EFF305835D
:104140000F2B0FD9104A9B5CDBB2104A12789A42AF
:1041500008D94FF0500383F31188BFF36F8FBFF37B
:104160004F8FFEE70A4B1B6803F4E063094A1268AD
:10417000934208D94FF0500383F31188BFF36F8F38
:10418000BFF34F8FFEE77047F0E300E0481D0020CB
:104190000CED00E04C1D00200268094B9A4200D053
:1041A000704782B003F50333DA6942F00202DA6144
:1041B000DB6903F002030193019B02B0704700BF6B
:1041C0000004004000B587B00023029303930493DA
:1041D000059302680D4B9A4202D007B05DF804FBCC
:1041E00003F503339A6942F004029A619B6903F074
:1041F00004030193019BC0230293022303930593BD
:1042000002A90348034B9847E7E700BF00040040BA
:1042100000080140CD11000800B58FB000230A93BB
:104220000B930C930D9308930993019302930393BB
:1042300004930593069307932748284A026041F6A2
:104240003F72426083600F22C26003618361244B2E
:10425000984700282DD14FF480530A930AA91E488D
:10426000204B9847002827D11B481F4B984730BB4D
:1042700000230893099308A917481C4B984708BBCB
:10428000602301930022029202230393059201A965
:104290001148174B9847C0B904220DEB02010E4894
:1042A000134B9847A0B90C48124B98470FB05DF8D4
:1042B00004FB114B9847CEE70F4B9847D4E70E4BC2
:1042C0009847D5E70C4B9847DAE70B4B9847E3E75D
:1042D000094B9847E7E700BF1C1E00200004004080
:1042E0005506000871080008B5060008590A0008BC
:1042F00079070008C54100080D020008002103E00D
:104300000B4B5B58435004310A480B4B42189A42FE
:10431000F6D30A4A02E0002342F8043B084B9A42D3
:10432000F9D3FDF705F900F00FF8FBF73BFF7047F5
:10433000544400080000002010000020100000205D
:10434000641E0020FEE7000070B500260C4D0D4CE9
:10435000641BA410A64209D100F030F800260A4DD3
:104360000A4C641BA410A64205D170BD55F8043B4D
:1043700098470136EEE755F8043B98470136F2E7D7
:104380004C4400084C4400084C44000850440008C9
:104390000A44914200F1FF3300D1704710B511F883
:1043A000014B914203F8014FF9D110BD034602447D
:1043B000934200D1704703F8011BF9E7F8B500BF3D
:1043C000F8BC08BC9E467047F8B500BFF8BC08BCF6
:0443D0009E4670474E
:1043D40002030405060708090A0B0C0D0E0F101042
:1043E40000000000000000000000000001020304BF
:1043F4000607080900000000010203044C43445F5F
:104404005461736B000000007472616E736D6974A3
:104414005461736B000000007265636569766554CE
:1044240061736B00776F726B5461736B00000000F3
:1044340049444C4500000000546D725100000000D6
:08444400546D722053766300F1
:04444C00350100082E
:04445000110100084E
:1044540001000000100000000024F400AAAAAAAA87
:04000005080042FDB0
:00000001FF
